{
  "_format": "hh-sol-artifact-1",
  "contractName": "TreasureKeyBet",
  "sourceName": "contracts/TreasureKeyBet.sol",
  "abi": [
    {
      "anonymous": false,
      "inputs": [
        {
          "indexed": true,
          "internalType": "address",
          "name": "previousOwner",
          "type": "address"
        },
        {
          "indexed": true,
          "internalType": "address",
          "name": "newOwner",
          "type": "address"
        }
      ],
      "name": "OwnershipTransferred",
      "type": "event"
    },
    {
      "anonymous": false,
      "inputs": [
        {
          "indexed": true,
          "internalType": "uint256",
          "name": "affiliateID",
          "type": "uint256"
        },
        {
          "indexed": false,
          "internalType": "address",
          "name": "affiliateAddress",
          "type": "address"
        },
        {
          "indexed": false,
          "internalType": "bytes32",
          "name": "affiliateName",
          "type": "bytes32"
        },
        {
          "indexed": true,
          "internalType": "uint256",
          "name": "roundID",
          "type": "uint256"
        },
        {
          "indexed": true,
          "internalType": "uint256",
          "name": "buyerID",
          "type": "uint256"
        },
        {
          "indexed": false,
          "internalType": "uint256",
          "name": "amount",
          "type": "uint256"
        },
        {
          "indexed": false,
          "internalType": "uint256",
          "name": "timeStamp",
          "type": "uint256"
        }
      ],
      "name": "onAffiliatePayout",
      "type": "event"
    },
    {
      "anonymous": false,
      "inputs": [
        {
          "indexed": false,
          "internalType": "address",
          "name": "playerAddress",
          "type": "address"
        },
        {
          "indexed": false,
          "internalType": "bytes32",
          "name": "playerName",
          "type": "bytes32"
        },
        {
          "indexed": false,
          "internalType": "uint256",
          "name": "ethIn",
          "type": "uint256"
        },
        {
          "indexed": false,
          "internalType": "uint256",
          "name": "compressedData",
          "type": "uint256"
        },
        {
          "indexed": false,
          "internalType": "uint256",
          "name": "compressedIDs",
          "type": "uint256"
        },
        {
          "indexed": false,
          "internalType": "address",
          "name": "winnerAddr",
          "type": "address"
        },
        {
          "indexed": false,
          "internalType": "bytes32",
          "name": "winnerName",
          "type": "bytes32"
        },
        {
          "indexed": false,
          "internalType": "uint256",
          "name": "amountWon",
          "type": "uint256"
        },
        {
          "indexed": false,
          "internalType": "uint256",
          "name": "devAmount",
          "type": "uint256"
        },
        {
          "indexed": false,
          "internalType": "uint256",
          "name": "genAmount",
          "type": "uint256"
        }
      ],
      "name": "onBuyAndDistribute",
      "type": "event"
    },
    {
      "anonymous": false,
      "inputs": [
        {
          "indexed": false,
          "internalType": "uint256",
          "name": "compressedData",
          "type": "uint256"
        },
        {
          "indexed": false,
          "internalType": "uint256",
          "name": "compressedIDs",
          "type": "uint256"
        },
        {
          "indexed": false,
          "internalType": "bytes32",
          "name": "playerName",
          "type": "bytes32"
        },
        {
          "indexed": false,
          "internalType": "address",
          "name": "playerAddress",
          "type": "address"
        },
        {
          "indexed": false,
          "internalType": "uint256",
          "name": "ethIn",
          "type": "uint256"
        },
        {
          "indexed": false,
          "internalType": "uint256",
          "name": "keysBought",
          "type": "uint256"
        },
        {
          "indexed": false,
          "internalType": "address",
          "name": "winnerAddr",
          "type": "address"
        },
        {
          "indexed": false,
          "internalType": "bytes32",
          "name": "winnerName",
          "type": "bytes32"
        },
        {
          "indexed": false,
          "internalType": "uint256",
          "name": "amountWon",
          "type": "uint256"
        },
        {
          "indexed": false,
          "internalType": "uint256",
          "name": "devAmount",
          "type": "uint256"
        },
        {
          "indexed": false,
          "internalType": "uint256",
          "name": "genAmount",
          "type": "uint256"
        },
        {
          "indexed": false,
          "internalType": "uint256",
          "name": "potAmount",
          "type": "uint256"
        }
      ],
      "name": "onEndTx",
      "type": "event"
    },
    {
      "anonymous": false,
      "inputs": [
        {
          "indexed": true,
          "internalType": "uint256",
          "name": "playerID",
          "type": "uint256"
        },
        {
          "indexed": true,
          "internalType": "address",
          "name": "playerAddress",
          "type": "address"
        },
        {
          "indexed": true,
          "internalType": "bytes32",
          "name": "playerName",
          "type": "bytes32"
        },
        {
          "indexed": false,
          "internalType": "bool",
          "name": "isNewPlayer",
          "type": "bool"
        },
        {
          "indexed": false,
          "internalType": "uint256",
          "name": "affiliateID",
          "type": "uint256"
        },
        {
          "indexed": false,
          "internalType": "address",
          "name": "affiliateAddress",
          "type": "address"
        },
        {
          "indexed": false,
          "internalType": "bytes32",
          "name": "affiliateName",
          "type": "bytes32"
        },
        {
          "indexed": false,
          "internalType": "uint256",
          "name": "amountPaid",
          "type": "uint256"
        },
        {
          "indexed": false,
          "internalType": "uint256",
          "name": "timeStamp",
          "type": "uint256"
        }
      ],
      "name": "onNewName",
      "type": "event"
    },
    {
      "anonymous": false,
      "inputs": [
        {
          "indexed": false,
          "internalType": "address",
          "name": "playerAddress",
          "type": "address"
        },
        {
          "indexed": false,
          "internalType": "bytes32",
          "name": "playerName",
          "type": "bytes32"
        },
        {
          "indexed": false,
          "internalType": "uint256",
          "name": "compressedData",
          "type": "uint256"
        },
        {
          "indexed": false,
          "internalType": "uint256",
          "name": "compressedIDs",
          "type": "uint256"
        },
        {
          "indexed": false,
          "internalType": "address",
          "name": "winnerAddr",
          "type": "address"
        },
        {
          "indexed": false,
          "internalType": "bytes32",
          "name": "winnerName",
          "type": "bytes32"
        },
        {
          "indexed": false,
          "internalType": "uint256",
          "name": "amountWon",
          "type": "uint256"
        },
        {
          "indexed": false,
          "internalType": "uint256",
          "name": "devAmount",
          "type": "uint256"
        },
        {
          "indexed": false,
          "internalType": "uint256",
          "name": "genAmount",
          "type": "uint256"
        }
      ],
      "name": "onReLoadAndDistribute",
      "type": "event"
    },
    {
      "anonymous": false,
      "inputs": [
        {
          "indexed": true,
          "internalType": "uint256",
          "name": "playerID",
          "type": "uint256"
        },
        {
          "indexed": false,
          "internalType": "address",
          "name": "playerAddress",
          "type": "address"
        },
        {
          "indexed": false,
          "internalType": "bytes32",
          "name": "playerName",
          "type": "bytes32"
        },
        {
          "indexed": false,
          "internalType": "uint256",
          "name": "ethOut",
          "type": "uint256"
        },
        {
          "indexed": false,
          "internalType": "uint256",
          "name": "timeStamp",
          "type": "uint256"
        }
      ],
      "name": "onWithdraw",
      "type": "event"
    },
    {
      "anonymous": false,
      "inputs": [
        {
          "indexed": false,
          "internalType": "address",
          "name": "playerAddress",
          "type": "address"
        },
        {
          "indexed": false,
          "internalType": "bytes32",
          "name": "playerName",
          "type": "bytes32"
        },
        {
          "indexed": false,
          "internalType": "uint256",
          "name": "ethOut",
          "type": "uint256"
        },
        {
          "indexed": false,
          "internalType": "uint256",
          "name": "compressedData",
          "type": "uint256"
        },
        {
          "indexed": false,
          "internalType": "uint256",
          "name": "compressedIDs",
          "type": "uint256"
        },
        {
          "indexed": false,
          "internalType": "address",
          "name": "winnerAddr",
          "type": "address"
        },
        {
          "indexed": false,
          "internalType": "bytes32",
          "name": "winnerName",
          "type": "bytes32"
        },
        {
          "indexed": false,
          "internalType": "uint256",
          "name": "amountWon",
          "type": "uint256"
        },
        {
          "indexed": false,
          "internalType": "uint256",
          "name": "devAmount",
          "type": "uint256"
        },
        {
          "indexed": false,
          "internalType": "uint256",
          "name": "genAmount",
          "type": "uint256"
        }
      ],
      "name": "onWithdrawAndDistribute",
      "type": "event"
    },
    {
      "stateMutability": "payable",
      "type": "fallback"
    },
    {
      "inputs": [],
      "name": "activate",
      "outputs": [],
      "stateMutability": "payable",
      "type": "function"
    },
    {
      "inputs": [],
      "name": "activated_",
      "outputs": [
        {
          "internalType": "bool",
          "name": "",
          "type": "bool"
        }
      ],
      "stateMutability": "view",
      "type": "function"
    },
    {
      "inputs": [
        {
          "internalType": "bytes32",
          "name": "_affCode",
          "type": "bytes32"
        }
      ],
      "name": "buyXname",
      "outputs": [],
      "stateMutability": "payable",
      "type": "function"
    },
    {
      "inputs": [
        {
          "internalType": "uint256",
          "name": "_rID",
          "type": "uint256"
        },
        {
          "internalType": "uint256",
          "name": "_eth",
          "type": "uint256"
        }
      ],
      "name": "calcKeysReceived",
      "outputs": [
        {
          "internalType": "uint256",
          "name": "",
          "type": "uint256"
        }
      ],
      "stateMutability": "view",
      "type": "function"
    },
    {
      "inputs": [],
      "name": "fees_",
      "outputs": [
        {
          "internalType": "uint256",
          "name": "gen",
          "type": "uint256"
        },
        {
          "internalType": "uint256",
          "name": "dev",
          "type": "uint256"
        },
        {
          "internalType": "uint256",
          "name": "burn",
          "type": "uint256"
        },
        {
          "internalType": "uint256",
          "name": "pot",
          "type": "uint256"
        },
        {
          "internalType": "uint256",
          "name": "pool",
          "type": "uint256"
        },
        {
          "internalType": "uint256",
          "name": "aff",
          "type": "uint256"
        }
      ],
      "stateMutability": "view",
      "type": "function"
    },
    {
      "inputs": [],
      "name": "getBuyPrice",
      "outputs": [
        {
          "internalType": "uint256",
          "name": "",
          "type": "uint256"
        }
      ],
      "stateMutability": "view",
      "type": "function"
    },
    {
      "inputs": [],
      "name": "getCurrentRoundInfo",
      "outputs": [
        {
          "internalType": "uint256",
          "name": "",
          "type": "uint256"
        },
        {
          "internalType": "uint256",
          "name": "",
          "type": "uint256"
        },
        {
          "internalType": "uint256",
          "name": "",
          "type": "uint256"
        },
        {
          "internalType": "uint256",
          "name": "",
          "type": "uint256"
        },
        {
          "internalType": "uint256",
          "name": "",
          "type": "uint256"
        },
        {
          "internalType": "uint256",
          "name": "",
          "type": "uint256"
        },
        {
          "internalType": "uint256",
          "name": "",
          "type": "uint256"
        },
        {
          "internalType": "address",
          "name": "",
          "type": "address"
        },
        {
          "internalType": "bytes32",
          "name": "",
          "type": "bytes32"
        }
      ],
      "stateMutability": "view",
      "type": "function"
    },
    {
      "inputs": [
        {
          "internalType": "uint256",
          "name": "roundId",
          "type": "uint256"
        }
      ],
      "name": "getPastRoundInfo",
      "outputs": [
        {
          "internalType": "uint256",
          "name": "",
          "type": "uint256"
        },
        {
          "internalType": "uint256",
          "name": "",
          "type": "uint256"
        },
        {
          "internalType": "uint256",
          "name": "",
          "type": "uint256"
        },
        {
          "internalType": "uint256",
          "name": "",
          "type": "uint256"
        },
        {
          "internalType": "uint256",
          "name": "",
          "type": "uint256"
        },
        {
          "internalType": "uint256",
          "name": "",
          "type": "uint256"
        },
        {
          "internalType": "uint256",
          "name": "",
          "type": "uint256"
        },
        {
          "internalType": "address",
          "name": "",
          "type": "address"
        },
        {
          "internalType": "bytes32",
          "name": "",
          "type": "bytes32"
        }
      ],
      "stateMutability": "view",
      "type": "function"
    },
    {
      "inputs": [
        {
          "internalType": "address",
          "name": "_addr",
          "type": "address"
        }
      ],
      "name": "getPlayerInfoByAddress",
      "outputs": [
        {
          "internalType": "uint256",
          "name": "",
          "type": "uint256"
        },
        {
          "internalType": "bytes32",
          "name": "",
          "type": "bytes32"
        },
        {
          "internalType": "uint256",
          "name": "",
          "type": "uint256"
        },
        {
          "internalType": "uint256",
          "name": "",
          "type": "uint256"
        },
        {
          "internalType": "uint256",
          "name": "",
          "type": "uint256"
        },
        {
          "internalType": "uint256",
          "name": "",
          "type": "uint256"
        },
        {
          "internalType": "uint256",
          "name": "",
          "type": "uint256"
        }
      ],
      "stateMutability": "view",
      "type": "function"
    },
    {
      "inputs": [
        {
          "internalType": "uint256",
          "name": "_pID",
          "type": "uint256"
        }
      ],
      "name": "getPlayerVaults",
      "outputs": [
        {
          "internalType": "uint256",
          "name": "",
          "type": "uint256"
        },
        {
          "internalType": "uint256",
          "name": "",
          "type": "uint256"
        },
        {
          "internalType": "uint256",
          "name": "",
          "type": "uint256"
        }
      ],
      "stateMutability": "view",
      "type": "function"
    },
    {
      "inputs": [],
      "name": "getTimeLeft",
      "outputs": [
        {
          "internalType": "uint256",
          "name": "",
          "type": "uint256"
        }
      ],
      "stateMutability": "view",
      "type": "function"
    },
    {
      "inputs": [
        {
          "internalType": "uint256",
          "name": "_keys",
          "type": "uint256"
        }
      ],
      "name": "iWantXKeys",
      "outputs": [
        {
          "internalType": "uint256",
          "name": "",
          "type": "uint256"
        }
      ],
      "stateMutability": "view",
      "type": "function"
    },
    {
      "inputs": [
        {
          "internalType": "address",
          "name": "_book",
          "type": "address"
        },
        {
          "internalType": "address",
          "name": "_pool",
          "type": "address"
        }
      ],
      "name": "initialize",
      "outputs": [],
      "stateMutability": "nonpayable",
      "type": "function"
    },
    {
      "inputs": [],
      "name": "name",
      "outputs": [
        {
          "internalType": "string",
          "name": "",
          "type": "string"
        }
      ],
      "stateMutability": "view",
      "type": "function"
    },
    {
      "inputs": [],
      "name": "owner",
      "outputs": [
        {
          "internalType": "address",
          "name": "",
          "type": "address"
        }
      ],
      "stateMutability": "view",
      "type": "function"
    },
    {
      "inputs": [
        {
          "internalType": "address",
          "name": "",
          "type": "address"
        }
      ],
      "name": "pIDxAddr_",
      "outputs": [
        {
          "internalType": "uint256",
          "name": "",
          "type": "uint256"
        }
      ],
      "stateMutability": "view",
      "type": "function"
    },
    {
      "inputs": [
        {
          "internalType": "bytes32",
          "name": "",
          "type": "bytes32"
        }
      ],
      "name": "pIDxName_",
      "outputs": [
        {
          "internalType": "uint256",
          "name": "",
          "type": "uint256"
        }
      ],
      "stateMutability": "view",
      "type": "function"
    },
    {
      "inputs": [
        {
          "internalType": "uint256",
          "name": "",
          "type": "uint256"
        },
        {
          "internalType": "bytes32",
          "name": "",
          "type": "bytes32"
        }
      ],
      "name": "plyrNames_",
      "outputs": [
        {
          "internalType": "bool",
          "name": "",
          "type": "bool"
        }
      ],
      "stateMutability": "view",
      "type": "function"
    },
    {
      "inputs": [
        {
          "internalType": "uint256",
          "name": "",
          "type": "uint256"
        },
        {
          "internalType": "uint256",
          "name": "",
          "type": "uint256"
        }
      ],
      "name": "plyrRnds_",
      "outputs": [
        {
          "internalType": "uint256",
          "name": "eth",
          "type": "uint256"
        },
        {
          "internalType": "uint256",
          "name": "keys",
          "type": "uint256"
        },
        {
          "internalType": "uint256",
          "name": "mask",
          "type": "uint256"
        },
        {
          "internalType": "uint256",
          "name": "ico",
          "type": "uint256"
        }
      ],
      "stateMutability": "view",
      "type": "function"
    },
    {
      "inputs": [
        {
          "internalType": "uint256",
          "name": "",
          "type": "uint256"
        }
      ],
      "name": "plyr_",
      "outputs": [
        {
          "internalType": "address",
          "name": "addr",
          "type": "address"
        },
        {
          "internalType": "bytes32",
          "name": "name",
          "type": "bytes32"
        },
        {
          "internalType": "uint256",
          "name": "win",
          "type": "uint256"
        },
        {
          "internalType": "uint256",
          "name": "gen",
          "type": "uint256"
        },
        {
          "internalType": "uint256",
          "name": "aff",
          "type": "uint256"
        },
        {
          "internalType": "uint256",
          "name": "lrnd",
          "type": "uint256"
        },
        {
          "internalType": "uint256",
          "name": "laff",
          "type": "uint256"
        }
      ],
      "stateMutability": "view",
      "type": "function"
    },
    {
      "inputs": [],
      "name": "potSplit_",
      "outputs": [
        {
          "internalType": "uint256",
          "name": "win",
          "type": "uint256"
        },
        {
          "internalType": "uint256",
          "name": "next",
          "type": "uint256"
        },
        {
          "internalType": "uint256",
          "name": "dev",
          "type": "uint256"
        }
      ],
      "stateMutability": "view",
      "type": "function"
    },
    {
      "inputs": [],
      "name": "rID_",
      "outputs": [
        {
          "internalType": "uint256",
          "name": "",
          "type": "uint256"
        }
      ],
      "stateMutability": "view",
      "type": "function"
    },
    {
      "inputs": [
        {
          "internalType": "bytes32",
          "name": "_affCode",
          "type": "bytes32"
        },
        {
          "internalType": "uint256",
          "name": "_eth",
          "type": "uint256"
        }
      ],
      "name": "reLoadXname",
      "outputs": [],
      "stateMutability": "nonpayable",
      "type": "function"
    },
    {
      "inputs": [
        {
          "internalType": "uint256",
          "name": "_pID",
          "type": "uint256"
        },
        {
          "internalType": "address",
          "name": "_addr",
          "type": "address"
        },
        {
          "internalType": "bytes32",
          "name": "_name",
          "type": "bytes32"
        },
        {
          "internalType": "uint256",
          "name": "_laff",
          "type": "uint256"
        }
      ],
      "name": "receivePlayerInfo",
      "outputs": [],
      "stateMutability": "nonpayable",
      "type": "function"
    },
    {
      "inputs": [
        {
          "internalType": "uint256",
          "name": "_pID",
          "type": "uint256"
        },
        {
          "internalType": "bytes32",
          "name": "_name",
          "type": "bytes32"
        }
      ],
      "name": "receivePlayerNameList",
      "outputs": [],
      "stateMutability": "nonpayable",
      "type": "function"
    },
    {
      "inputs": [
        {
          "internalType": "string",
          "name": "_nameString",
          "type": "string"
        },
        {
          "internalType": "bytes32",
          "name": "_affCode",
          "type": "bytes32"
        },
        {
          "internalType": "bool",
          "name": "_all",
          "type": "bool"
        }
      ],
      "name": "registerNameXname",
      "outputs": [],
      "stateMutability": "payable",
      "type": "function"
    },
    {
      "inputs": [],
      "name": "renounceOwnership",
      "outputs": [],
      "stateMutability": "nonpayable",
      "type": "function"
    },
    {
      "inputs": [
        {
          "internalType": "uint256",
          "name": "",
          "type": "uint256"
        }
      ],
      "name": "round_",
      "outputs": [
        {
          "internalType": "uint256",
          "name": "plyr",
          "type": "uint256"
        },
        {
          "internalType": "uint256",
          "name": "end",
          "type": "uint256"
        },
        {
          "internalType": "bool",
          "name": "ended",
          "type": "bool"
        },
        {
          "internalType": "uint256",
          "name": "strt",
          "type": "uint256"
        },
        {
          "internalType": "uint256",
          "name": "keys",
          "type": "uint256"
        },
        {
          "internalType": "uint256",
          "name": "eth",
          "type": "uint256"
        },
        {
          "internalType": "uint256",
          "name": "pot",
          "type": "uint256"
        },
        {
          "internalType": "uint256",
          "name": "mask",
          "type": "uint256"
        },
        {
          "internalType": "uint256",
          "name": "ico",
          "type": "uint256"
        },
        {
          "internalType": "uint256",
          "name": "icoGen",
          "type": "uint256"
        },
        {
          "internalType": "uint256",
          "name": "icoAvg",
          "type": "uint256"
        }
      ],
      "stateMutability": "view",
      "type": "function"
    },
    {
      "inputs": [
        {
          "internalType": "address",
          "name": "_pool",
          "type": "address"
        }
      ],
      "name": "setPiratePool",
      "outputs": [],
      "stateMutability": "nonpayable",
      "type": "function"
    },
    {
      "inputs": [],
      "name": "symbol",
      "outputs": [
        {
          "internalType": "string",
          "name": "",
          "type": "string"
        }
      ],
      "stateMutability": "view",
      "type": "function"
    },
    {
      "inputs": [
        {
          "internalType": "address",
          "name": "newOwner",
          "type": "address"
        }
      ],
      "name": "transferOwnership",
      "outputs": [],
      "stateMutability": "nonpayable",
      "type": "function"
    },
    {
      "inputs": [],
      "name": "withdraw",
      "outputs": [],
      "stateMutability": "nonpayable",
      "type": "function"
    }
  ],
  "bytecode": "0x608060405234801561001057600080fd5b50614f39806100206000396000f3fe6080604052600436106101e35760003560e01c8063685ffd8311610102578063ce89c80c11610095578063e260949c11610064578063e260949c146109a0578063ee0b5d8b146109d3578063f2fde38b14610a3e578063fb9073eb14610a71576101e3565b8063ce89c80c146108c5578063cf808000146108f5578063d53b26791461091f578063de7874f314610934576101e3565b80638f7140ea116100d15780638f7140ea1461081557806395d89b4114610845578063a2bccae91461085a578063c7e284b8146108b0576101e3565b8063685ffd831461070d578063715018a6146107ba578063747dff42146107cf5780638da5cb5b146107e4576101e3565b80633ccfd60b1161017a57806358d162da1161014957806358d162da146106215780635f81182414610654578063624ae5c0146106ce57806363066434146106e3576101e3565b80633ccfd60b1461056f578063438d359e14610584578063485cc955146105a157806349cc635d146105dc576101e3565b8063200373c9116101b6578063200373c91461043957806324c33d33146104815780632660316e146105015780632e19ebdc14610545576101e3565b8063018a25e81461034b57806306fdde03146103725780630f15f4c0146103fc57806310f01eba14610406575b606654600160a01b900460ff16151560011461023b576040805162461bcd60e51b815260206004820152601260248201527134ba39903737ba103932b0b23c903cb2ba1760711b604482015290519081900360640190fd5b33803b8015610285576040805162461bcd60e51b8152602060048201526011602482015270736f7272792068756d616e73206f6e6c7960781b604482015290519081900360640190fd5b34633b9aca008110156102c95760405162461bcd60e51b8152600401808060200182810382526021815260200180614ec16021913960400191505060405180910390fd5b69152d02c7e14af6800000811115610314576040805162461bcd60e51b81526020600482015260096024820152686e6f20637a2c206e6f60b81b604482015290519081900360640190fd5b61031c614d3b565b61032581610aa1565b3360009081526068602052604081205491925061034490829084610cea565b5050505050005b34801561035757600080fd5b50610360610ec4565b60408051918252519081900360200190f35b34801561037e57600080fd5b50610387610f7b565b6040805160208082528351818301528351919283929083019185019080838360005b838110156103c15781810151838201526020016103a9565b50505050905090810190601f1680156103ee5780820380516001836020036101000a031916815260200191505b509250505060405180910390f35b610404610fa3565b005b34801561041257600080fd5b506103606004803603602081101561042957600080fd5b50356001600160a01b0316611141565b34801561044557600080fd5b5061044e611153565b604080519687526020870195909552858501939093526060850191909152608084015260a0830152519081900360c00190f35b34801561048d57600080fd5b506104ab600480360360208110156104a457600080fd5b5035611168565b604080519b8c5260208c019a909a529715158a8a015260608a0196909652608089019490945260a088019290925260c087015260e086015261010085015261012084015261014083015251908190036101600190f35b34801561050d57600080fd5b506105316004803603604081101561052457600080fd5b50803590602001356111c5565b604080519115158252519081900360200190f35b34801561055157600080fd5b506103606004803603602081101561056857600080fd5b50356111e5565b34801561057b57600080fd5b506104046111f7565b6104046004803603602081101561059a57600080fd5b503561150b565b3480156105ad57600080fd5b50610404600480360360408110156105c457600080fd5b506001600160a01b03813581169160200135166116eb565b3480156105e857600080fd5b50610404600480360360808110156105ff57600080fd5b508035906001600160a01b0360208201351690604081013590606001356118a9565b34801561062d57600080fd5b50610636611a43565b60408051938452602084019290925282820152519081900360600190f35b34801561066057600080fd5b5061067e6004803603602081101561067757600080fd5b5035611a4f565b60408051998a5260208a0198909852888801969096526060880194909452608087019290925260a086015260c08501526001600160a01b031660e084015261010083015251908190036101200190f35b3480156106da57600080fd5b50610360611b03565b3480156106ef57600080fd5b506106366004803603602081101561070657600080fd5b5035611b09565b6104046004803603606081101561072357600080fd5b81019060208101813564010000000081111561073e57600080fd5b82018360208201111561075057600080fd5b8035906020019184600183028401116401000000008311171561077257600080fd5b91908080601f01602080910402602001604051908101604052809392919081815260200183838082843760009201919091525092955050823593505050602001351515611c0c565b3480156107c657600080fd5b50610404611d9c565b3480156107db57600080fd5b5061067e611e48565b3480156107f057600080fd5b506107f9611f00565b604080516001600160a01b039092168252519081900360200190f35b34801561082157600080fd5b506104046004803603604081101561083857600080fd5b5080359060200135611f0f565b34801561085157600080fd5b50610387611fa2565b34801561086657600080fd5b5061088a6004803603604081101561087d57600080fd5b5080359060200135611fc6565b604080519485526020850193909352838301919091526060830152519081900360800190f35b3480156108bc57600080fd5b50610360611ff8565b3480156108d157600080fd5b50610360600480360360408110156108e857600080fd5b5080359060200135612075565b34801561090157600080fd5b506103606004803603602081101561091857600080fd5b5035612111565b34801561092b57600080fd5b506105316121b4565b34801561094057600080fd5b5061095e6004803603602081101561095757600080fd5b50356121c4565b604080516001600160a01b0390981688526020880196909652868601949094526060860192909252608085015260a084015260c0830152519081900360e00190f35b3480156109ac57600080fd5b50610404600480360360208110156109c357600080fd5b50356001600160a01b031661220b565b3480156109df57600080fd5b50610a06600480360360208110156109f657600080fd5b50356001600160a01b03166122d9565b604080519788526020880196909652868601949094526060860192909252608085015260a084015260c0830152519081900360e00190f35b348015610a4a57600080fd5b5061040460048036036020811015610a6157600080fd5b50356001600160a01b03166123e7565b348015610a7d57600080fd5b5061040460048036036040811015610a9457600080fd5b50803590602001356124ea565b610aa9614d3b565b3360009081526068602052604090205480610ce0576065546040805163e56556a960e01b815233600482015290516001600160a01b039092169163e56556a9916024808201926020929091908290030181600087803b158015610b0b57600080fd5b505af1158015610b1f573d6000803e3d6000fd5b505050506040513d6020811015610b3557600080fd5b5051606554604080516320b8decb60e21b81526004810184905290519293506000926001600160a01b03909216916382e37b2c91602480820192602092909190829003018186803b158015610b8957600080fd5b505afa158015610b9d573d6000803e3d6000fd5b505050506040513d6020811015610bb357600080fd5b50516065546040805163e3c08adf60e01b81526004810186905290519293506000926001600160a01b039092169163e3c08adf91602480820192602092909190829003018186803b158015610c0757600080fd5b505afa158015610c1b573d6000803e3d6000fd5b505050506040513d6020811015610c3157600080fd5b5051336000818152606860209081526040808320889055878352606a909152902080546001600160a01b031916909117905590508115610cad576000828152606960209081526040808320869055858352606a82528083206001908101869055606c8352818420868552909252909120805460ff191690911790555b8015801590610cbc5750828114155b15610cd6576000838152606a602052604090206006018190555b5050825160010183525b829150505b919050565b6067546000818152606d6020526040902060030154429081118015610d5157506000828152606d602052604090206001015481111580610d5157506000828152606d602052604090206001015481118015610d5157506000828152606d6020526040902054155b15610d6857610d6382863487876126c1565b610ebd565b6000828152606d602052604090206001015481118015610d9a57506000828152606d602052604090206002015460ff16155b15610e8e576000828152606d60205260409020600201805460ff19166001179055610dc483612912565b8051670de0b6b3a7640000830201815260208082018051880181526000888152606a83526040908190206001015484519251828601516060808801516080808a015160a0808c015160c0808e01518b513381529d8e019a909a52348d8c0152958c019a909a52918a01959095526001600160a01b039093169288019290925286015260e0850152610100840192909252610120830191909152519194507f5905265be09e3f6f7813c1dce4febfad76d4b3a46288aa344d2531532c3519c991908190036101400190a15b6000858152606a6020526040902060030154610eaa9034612af5565b6000868152606a60205260409020600301555b5050505050565b6067546000818152606d6020526040812060030154909190429081118015610f2e57506000828152606d602052604090206001015481111580610f2e57506000828152606d602052604090206001015481118015610f2e57506000828152606d6020526040902054155b15610f6c576000828152606d6020526040902060040154610f6390670de0b6b3a764000090610f5d9082612af5565b90612b43565b92505050610f78565b655af3107a4000925050505b90565b6040518060400160405280600c81526020016b129d5b99db194810da195cdd60a21b81525081565b610fab612b6a565b6001600160a01b0316610fbc611f00565b6001600160a01b031614611005576040805162461bcd60e51b81526020600482018190526024820152600080516020614ea1833981519152604482015290519081900360640190fd5b33736aa9a4aaf122a440b5ea3036c020e562327a85ed14611066576040805162461bcd60e51b81526020600482015260166024820152756f6e6c79207465616d2063616e20616374697661746560501b604482015290519081900360640190fd5b606654600160a01b900460ff16156110af5760405162461bcd60e51b8152600401808060200182810382526022815260200180614ee26022913960400191505060405180910390fd5b6066805460ff60a01b1916600160a01b17905560016067819055600052606d602052427fbb98d58f7e9fdb81be27aecd01537329fa27413effec04afc2f01e87a038c2bd819055610e10017fbb98d58f7e9fdb81be27aecd01537329fa27413effec04afc2f01e87a038c2bb55347fbb98d58f7e9fdb81be27aecd01537329fa27413effec04afc2f01e87a038c2c055565b60686020526000908152604090205481565b606e54606f5460705460715460725460735486565b606d60205260009081526040902080546001820154600283015460038401546004850154600586015460068701546007880154600889015460098a0154600a909a01549899979860ff90971697959694959394929391929091908b565b606c60209081526000928352604080842090915290825290205460ff1681565b60696020526000908152604090205481565b606654600160a01b900460ff16151560011461124f576040805162461bcd60e51b815260206004820152601260248201527134ba39903737ba103932b0b23c903cb2ba1760711b604482015290519081900360640190fd5b33803b8015611299576040805162461bcd60e51b8152602060048201526011602482015270736f7272792068756d616e73206f6e6c7960781b604482015290519081900360640190fd5b60675433600090815260686020908152604080832054848452606d909252822060010154429290831180156112e057506000848152606d602052604090206002015460ff16155b80156112f957506000848152606d602052604090205415155b1561145057611306614d3b565b6000858152606d60205260409020600201805460ff1916600117905561132b81612912565b905061133683612b6e565b91508115611384576000838152606a60205260408082205490516001600160a01b039091169184156108fc02918591818181858888f19350505050158015611382573d6000803e3d6000fd5b505b8051670de0b6b3a7640000850201815260208082018051850181526000858152606a83526040908190206001015484519251828601516060808801516080808a015160a0808c015160c0808e01518b513381529d8e019a909a528c8b018f9052958c019a909a52918a01959095526001600160a01b039093169288019290925286015260e0850152610100840192909252610120830191909152517f9e9c9331834267c84342f2dce38f9ba35eb0bfbcc207c64872e1e74f9706f2a3918190036101400190a150611503565b61145982612b6e565b905080156114a7576000828152606a60205260408082205490516001600160a01b039091169183156108fc02918491818181858888f193505050501580156114a5573d6000803e3d6000fd5b505b6000828152606a60209081526040918290206001015482513381529182015280820183905260608101859052905183917f8f36579a548bc439baa172a6521207464154da77f411e2da3db2f53affe6cc3a919081900360800190a25b505050505050565b606654600160a01b900460ff161515600114611563576040805162461bcd60e51b815260206004820152601260248201527134ba39903737ba103932b0b23c903cb2ba1760711b604482015290519081900360640190fd5b33803b80156115ad576040805162461bcd60e51b8152602060048201526011602482015270736f7272792068756d616e73206f6e6c7960781b604482015290519081900360640190fd5b34633b9aca008110156115f15760405162461bcd60e51b8152600401808060200182810382526021815260200180614ec16021913960400191505060405180910390fd5b69152d02c7e14af680000081111561163c576040805162461bcd60e51b81526020600482015260096024820152686e6f20637a2c206e6f60b81b604482015290519081900360640190fd5b611644614d3b565b61164d81610aa1565b3360009081526068602052604081205491925086158061167d57506000828152606a602052604090206001015487145b1561169a57506000818152606a60205260409020600601546116d7565b50600086815260696020908152604080832054848452606a9092529091206006015481146116d7576000828152606a602052604090206006018190555b6116e2828285610cea565b50505050505050565b600054610100900460ff16806117045750611704612beb565b80611712575060005460ff16155b61174d5760405162461bcd60e51b815260040180806020018281038252602e815260200180614e04602e913960400191505060405180910390fd5b600054610100900460ff16158015611778576000805460ff1961ff0019909116610100171660011790555b611780612bfc565b600061178a611f00565b6001600160a01b031614156117da576040805162461bcd60e51b81526020600482015260116024820152701bdddb995c881b5d5cdd081899481cd95d607a1b604482015290519081900360640190fd5b606680546040805160c0810182526018808252600560208084018290526001848601819052603c60608087018290526080870185905260a0909601849052606e94909455606f83905560705560719290925560728190556073558251918201835260328083526030918301829052600292909301829052607492909255607591909155607655606580546001600160a01b0319166001600160a01b03878116919091179091556001600160a81b031990911690841617905580156118a4576000805461ff00191690555b505050565b6065546001600160a01b031633146118f25760405162461bcd60e51b8152600401808060200182810382526027815260200180614ddd6027913960400191505060405180910390fd5b6001600160a01b038316600090815260686020526040902054841461192d576001600160a01b03831660009081526068602052604090208490555b60008281526069602052604090205484146119545760008281526069602052604090208490555b6000848152606a60205260409020546001600160a01b0384811691161461199d576000848152606a6020526040902080546001600160a01b0319166001600160a01b0385161790555b6000848152606a602052604090206001015482146119ca576000848152606a602052604090206001018290555b6000848152606a602052604090206006015481146119f7576000848152606a602052604090206006018190555b6000848152606c6020908152604080832085845290915290205460ff16611a3d576000848152606c602090815260408083208584529091529020805460ff191660011790555b50505050565b60745460755460765483565b60008080808080808080323314611aa1576040805162461bcd60e51b8152602060048201526011602482015270736f7272792068756d616e73206f6e6c7960781b604482015290519081900360640190fd5b5050506000878152606d6020908152604080832060088101546004820154600180840154600385015460068601549554808a52606a909852959097208054910154929e919c50959a509298509096509194506001600160a01b03909216925090565b60675481565b6067546000818152606d60205260408120600101549091829182919042118015611b4557506000818152606d602052604090206002015460ff16155b8015611b5e57506000818152606d602052604090205415155b15611bdd576000858152606a60209081526040808320600290810154606b8452828520868652909352922090910154611bbd90611ba590611b9f8986612cae565b90612d3e565b6000888152606a602052604090206003015490612af5565b6000878152606a602052604090206004015491955093509150611c059050565b6000858152606a602052604090206002810154600590910154611bbd90611ba5908890612d91565b9193909250565b33803b8015611c56576040805162461bcd60e51b8152602060048201526011602482015270736f7272792068756d616e73206f6e6c7960781b604482015290519081900360640190fd5b6000611c6186612de6565b6065546040805163745ea0c160e01b8152336004820181905260248201859052604482018a90528815156064830152825194955093349360009384936001600160a01b039092169263745ea0c1928792608480830193919282900301818588803b158015611cce57600080fd5b505af1158015611ce2573d6000803e3d6000fd5b50505050506040513d6040811015611cf957600080fd5b5080516020918201516001600160a01b03808816600081815260688652604080822054858352606a8852918190208054600190910154825188151581529889018790529416878201526060870193909352608086018990524260a0870152915193965091945092889284917fdd6176433ff5026bbce96b068584b7bbe3514227e72df9c630b749ae87e64442919081900360c00190a45050505050505050505050565b611da4612b6a565b6001600160a01b0316611db5611f00565b6001600160a01b031614611dfe576040805162461bcd60e51b81526020600482018190526024820152600080516020614ea1833981519152604482015290519081900360640190fd5b6033546040516000916001600160a01b0316907f8be0079c531659141344cd1fd0a4f28419497f9722a3daafe3b4186f6b6457e0908390a3603380546001600160a01b0319169055565b60008080808080808080323314611e9a576040805162461bcd60e51b8152602060048201526011602482015270736f7272792068756d616e73206f6e6c7960781b604482015290519081900360640190fd5b50506067546000818152606d6020908152604080832060088101546004820154600180840154600385015460068601549554808a52606a909852959097208054910154929f979e50909c50949a5091985096509094506001600160a01b03909116925090565b6033546001600160a01b031690565b6065546001600160a01b03163314611f585760405162461bcd60e51b8152600401808060200182810382526027815260200180614ddd6027913960400191505060405180910390fd5b6000828152606c6020908152604080832084845290915290205460ff16611f9e576000828152606c602090815260408083208484529091529020805460ff191660011790555b5050565b60405180604001604052806008815260200167545245415355524560c01b81525081565b606b60209081526000928352604080842090915290825290208054600182015460028301546003909301549192909184565b6067546000818152606d6020526040812060010154909190429081101561206a576000828152606d602052604090206003015481111561204e576000828152606d6020526040902060010154610f639082612d3e565b6000828152606d6020526040902060030154610f639082612d3e565b600092505050610f78565b6000828152606d60205260408120600301544290811180156120d957506000848152606d6020526040902060010154811115806120d957506000848152606d6020526040902060010154811180156120d957506000848152606d6020526040902054155b15612102576000848152606d60205260409020600501546120fa90846132d2565b91505061210b565b6120fa836132ed565b92915050565b6067546000818152606d602052604081206003015490919042908111801561217b57506000828152606d60205260409020600101548111158061217b57506000828152606d60205260409020600101548111801561217b57506000828152606d6020526040902054155b156121ab576000828152606d60205260409020600401546121a2908590610f5d9082612af5565b92505050610ce5565b6121a284613361565b606654600160a01b900460ff1681565b606a6020526000908152604090208054600182015460028301546003840154600485015460058601546006909601546001600160a01b039095169593949293919290919087565b612213612b6a565b6001600160a01b0316612224611f00565b6001600160a01b03161461226d576040805162461bcd60e51b81526020600482018190526024820152600080516020614ea1833981519152604482015290519081900360640190fd5b6001600160a01b0381166122b7576040805162461bcd60e51b815260206004820152600c60248201526b7a65726f206164647265737360a01b604482015290519081900360640190fd5b606680546001600160a01b0319166001600160a01b0392909216919091179055565b6000808080808080323314612329576040805162461bcd60e51b8152602060048201526011602482015270736f7272792068756d616e73206f6e6c7960781b604482015290519081900360640190fd5b6067546001600160a01b038916600090815260686020908152604080832054808452606a808452828520600180820154606b87528588208989528752948720015495839052935260028301546005909301549093849390916123a890612390908690612d91565b6000878152606a602052604090206003015490612af5565b6000958652606a6020908152604080882060040154606b83528189209989529890915290952054939e929d50909b509950919750919550909350915050565b6123ef612b6a565b6001600160a01b0316612400611f00565b6001600160a01b031614612449576040805162461bcd60e51b81526020600482018190526024820152600080516020614ea1833981519152604482015290519081900360640190fd5b6001600160a01b03811661248e5760405162461bcd60e51b8152600401808060200182810382526026815260200180614d8d6026913960400191505060405180910390fd5b6033546040516001600160a01b038084169216907f8be0079c531659141344cd1fd0a4f28419497f9722a3daafe3b4186f6b6457e090600090a3603380546001600160a01b0319166001600160a01b0392909216919091179055565b606654600160a01b900460ff161515600114612542576040805162461bcd60e51b815260206004820152601260248201527134ba39903737ba103932b0b23c903cb2ba1760711b604482015290519081900360640190fd5b33803b801561258c576040805162461bcd60e51b8152602060048201526011602482015270736f7272792068756d616e73206f6e6c7960781b604482015290519081900360640190fd5b82633b9aca008110156125d05760405162461bcd60e51b8152600401808060200182810382526021815260200180614ec16021913960400191505060405180910390fd5b69152d02c7e14af680000081111561261b576040805162461bcd60e51b81526020600482015260096024820152686e6f20637a2c206e6f60b81b604482015290519081900360640190fd5b612623614d3b565b336000908152606860205260408120549087158061265157506000828152606a602052604090206001015488145b1561266e57506000818152606a60205260409020600601546126ab565b50600087815260696020908152604080832054848452606a9092529091206006015481146126ab576000828152606a602052604090206006018190555b6126b7828289866133bc565b5050505050505050565b6000848152606b602090815260408083208884529091529020600101546126ef576126ec8482613583565b90505b6000858152606d60205260409020600501546802b5e3af16b188000011801561274357506000848152606b60209081526040808320888452909152902054670de0b6b3a7640000906127419085612af5565b115b156127b8576000848152606b6020908152604080832088845290915281205461277590670de0b6b3a764000090612d3e565b905060006127838583612d3e565b6000878152606a60205260409020600301549091506127a29082612af5565b6000878152606a60205260409020600301555092505b633b9aca00831115610ebd576000858152606d60205260408120600501546127e090856132d2565b9050670de0b6b3a7640000811061282a576127fb81876135e3565b6000868152606d60205260409020548514612822576000868152606d602052604090208590555b815160640182525b6000858152606b60209081526040808320898452909152902060010154612852908290612af5565b6000868152606b602090815260408083208a8452909152902060018101919091555461287f908590612af5565b6000868152606b602090815260408083208a8452825280832093909355606d905220600401546128b0908290612af5565b6000878152606d602052604090206004810191909155600501546128d5908590612af5565b6000878152606d60205260409020600501556128f4848787868661377a565b915061290486868684878761413e565b915061150385858385614256565b61291a614d3b565b6067546000818152606d602090815260409182902080546006909101548351808501909452601084526f151bdd185b081c1bdd08185b5bdd5b9d60821b92840192909252916129699082614379565b600061298e60646129886074600001548561442790919063ffffffff16565b9061448d565b905060006129af60646129886074600201548661442790919063ffffffff16565b90506129bf81611b9f8585612d3e565b6000858152606a60205260409020600201549093506129df908390612af5565b6000858152606a6020526040808220600201929092559051736aa9a4aaf122a440b5ea3036c020e562327a85ed9183156108fc02918491818181858888f19350505050158015612a33573d6000803e3d6000fd5b506000858152606d602081815260408084206001908101548c51620f4240909102018c528b830180516a52b7d2dcc80cd2e40000008b02019052888552606a835281852080546001600160a01b03168d84015281015460608d015260808c0187905260e08c0188905260a08c018690526067805482019055909801808452919052959020426003909101819055612acc90610e10612af5565b6000958652606d6020526040909520600181019590955550506006909201919091555090919050565b8181018281101561210b576040805162461bcd60e51b815260206004820152601360248201527214d8599953585d1a081859190819985a5b1959606a1b604482015290519081900360640190fd5b6000612b63612b5a612b558585612d3e565b613361565b611b9f85613361565b9392505050565b3390565b6000818152606a6020526040812060050154612b8b9083906144af565b6000828152606a6020526040812060048101546003820154600290920154612bbd92612bb79190612af5565b90612af5565b9050801561210b576000838152606a6020526040812060028101829055600381018290556004015592915050565b6000612bf630614536565b15905090565b600054610100900460ff1680612c155750612c15612beb565b80612c23575060005460ff16155b612c5e5760405162461bcd60e51b815260040180806020018281038252602e815260200180614e04602e913960400191505060405180910390fd5b600054610100900460ff16158015612c89576000805460ff1961ff0019909116610100171660011790555b612c9161453c565b612c996145dc565b8015612cab576000805461ff00191690555b50565b6000828152606b60209081526040808320848452825280832060010154606d90925282206004810154600690910154670de0b6b3a764000092612d2f929091612d089190612d0e9086908490606490612988906032614427565b90614427565b81612d1557fe5b6000888152606d6020526040902060070154919004612af5565b81612d3657fe5b049392505050565b600082821115612d8b576040805162461bcd60e51b815260206004820152601360248201527214d8599953585d1a081cdd588819985a5b1959606a1b604482015290519081900360640190fd5b50900390565b6000828152606b6020908152604080832084845282528083206002810154600190910154606d90935290832060070154612b6392670de0b6b3a764000091612dd891614427565b81612ddf57fe5b0490612d3e565b8051600090829060208111801590612dfe5750600081115b612e395760405162461bcd60e51b815260040180806020018281038252602a815260200180614db3602a913960400191505060405180910390fd5b81600081518110612e4657fe5b6020910101516001600160f81b031916600160fd1b14801590612e8b5750816001820381518110612e7357fe5b6020910101516001600160f81b031916600160fd1b14155b612ec65760405162461bcd60e51b8152600401808060200182810382526025815260200180614e5a6025913960400191505060405180910390fd5b81600081518110612ed357fe5b6020910101516001600160f81b031916600360fc1b1415612fd85781600181518110612efb57fe5b6020910101516001600160f81b031916600f60fb1b1415612f63576040805162461bcd60e51b815260206004820152601b60248201527f737472696e672063616e6e6f7420737461727420776974682030780000000000604482015290519081900360640190fd5b81600181518110612f7057fe5b6020910101516001600160f81b031916600b60fb1b1415612fd8576040805162461bcd60e51b815260206004820152601b60248201527f737472696e672063616e6e6f7420737461727420776974682030580000000000604482015290519081900360640190fd5b6000805b8281101561326e57604060f81b848281518110612ff557fe5b01602001516001600160f81b03191611801561302e5750605b60f81b84828151811061301d57fe5b01602001516001600160f81b031916105b156130855783818151811061303f57fe5b602001015160f81c60f81b60f81c60200160f81b84828151811061305f57fe5b60200101906001600160f81b031916908160001a9053508161308057600191505b613266565b83818151811061309157fe5b6020910101516001600160f81b031916600160fd1b14806130f75750606060f81b8482815181106130be57fe5b01602001516001600160f81b0319161180156130f75750607b60f81b8482815181106130e657fe5b01602001516001600160f81b031916105b806131475750602f60f81b84828151811061310e57fe5b01602001516001600160f81b0319161180156131475750603a60f81b84828151811061313657fe5b01602001516001600160f81b031916105b6131825760405162461bcd60e51b8152600401808060200182810382526022815260200180614e7f6022913960400191505060405180910390fd5b83818151811061318e57fe5b6020910101516001600160f81b031916600160fd1b141561320a578381600101815181106131b857fe5b6020910101516001600160f81b031916600160fd1b141561320a5760405162461bcd60e51b8152600401808060200182810382526028815260200180614e326028913960400191505060405180910390fd5b8115801561325c5750603060f81b84828151811061322457fe5b01602001516001600160f81b031916108061325c5750603960f81b84828151811061324b57fe5b01602001516001600160f81b031916115b1561326657600191505b600101612fdc565b506001811515146132c6576040805162461bcd60e51b815260206004820152601d60248201527f737472696e672063616e6e6f74206265206f6e6c79206e756d62657273000000604482015290519081900360640190fd5b50506020015192915050565b6000612b636132e0846132ed565b611b9f6132ed8686612af5565b6000655af3107a40006133536d027716b6a0adc2d677c080000000611b9f61334e7a0613c0fa4ffe7d36a9e5fb5b8e3b592fda87c04000000000000000612bb76d09dc5ada82b70b59df0200000000612d088a670de0b6b3a7640000614427565b6146d5565b8161335a57fe5b0492915050565b6000613374670de0b6b3a7640000614728565b613353600261339b61338e86670de0b6b3a7640000614427565b655af3107a400090614427565b816133a257fe5b04612bb76133af86614728565b652d79883d200090614427565b6067546000818152606d602052604090206003015442908111801561342357506000828152606d60205260409020600101548111158061342357506000828152606d60205260409020600101548111801561342357506000828152606d6020526040902054155b156134595761343584611b9f88612b6e565b6000878152606a602052604090206003015561345482878688876126c1565b611503565b6000828152606d60205260409020600101548111801561348b57506000828152606d602052604090206002015460ff16155b15611503576000828152606d60205260409020600201805460ff191660011790556134b583612912565b8051670de0b6b3a7640000830201815260208082018051890181526000898152606a83526040908190206001015484519251828601516060808801516080808a015160a0808c015160c0808e01518b513381529d8e019a909a528c8b019b909b52948b01969096526001600160a01b0390941690890152928701929092529385019390935260e0840192909252610100830191909152519194507f603a740c9291cc914e0c8d16b355cdb091aefd5d9bbdf4f95371ce756f5e8a4091908190036101200190a1505050505050565b61358b614d3b565b6000838152606a6020526040902060050154156135bf576000838152606a60205260409020600501546135bf9084906144af565b506067546000838152606a60205260409020600501558051600a0181528092915050565b6000818152606d60205260408120600101544291908211801561361257506000838152606d6020526040902054155b15613662576136406040518060400160405280600881526020016723b7b4b7339024b360c11b815250614734565b61365b82612bb7605a670de0b6b3a7640000885b0490614427565b90506136ba565b61368d6040518060400160405280600a815260200169476f696e6720656c736560b01b815250614734565b6000838152606d60205260409020600101546136b790612bb7605a670de0b6b3a764000088613654565b90505b6136e481604051806040016040528060088152602001675f6e657754696d6560c01b8152506147da565b6137266136f56301dfe20084612af5565b6040518060400160405280601381526020017228726e644d61785f292e616464285f6e6f772960681b8152506147da565b6137346301dfe20083612af5565b811015613754576000838152606d60205260409020600101819055611a3d565b6137626301dfe20083612af5565b6000848152606d602052604090206001015550505050565b613782614d3b565b60006137a16064612988606e600101548a61442790919063ffffffff16565b905060006137c26064612988606e600201548b61442790919063ffffffff16565b905060006137e36064612988606e600401548c61442790919063ffffffff16565b905060006138046064612988606e600501548d61442790919063ffffffff16565b905087871415801561382657506000878152606a602052604090206001015415155b15613939576000878152606a6020526040902060040154613848908290612af5565b6000888152606a602052604080822060048082019490945560655490548251631b82d29760e31b81526001600160a01b039182169581019590955260248501869052915191169263dc1694b892604480830193919282900301818387803b1580156138b257600080fd5b505af11580156138c6573d6000803e3d6000fd5b5050506000888152606a6020908152604091829020805460019091015483516001600160a01b0390921682529181019190915280820184905242606082015290518a92508b918a917f590bbc0fc16915a85269a48f74783c39842b7ae9eceb7c295c95dbe8b3ec73319181900360800190a45b600061394683600261448d565b9050600061397e73bb4cdb9cbd36b01bd1cbaebf2de08d9173bc095c837363041a8770c4cfe8193d784f3dc7826eab5b7fd230614888565b604080516370a0823160e01b8152306004820152905191925060009173bb4cdb9cbd36b01bd1cbaebf2de08d9173bc095c916370a08231916024808301926020929190829003018186803b1580156139d557600080fd5b505afa1580156139e9573d6000803e3d6000fd5b505050506040513d60208110156139ff57600080fd5b5051905073bb4cdb9cbd36b01bd1cbaebf2de08d9173bc095c63d0e30db0613a278786612d3e565b6040518263ffffffff1660e01b81526004016000604051808303818588803b158015613a5257600080fd5b505af1158015613a66573d6000803e3d6000fd5b50505050506000613b048273bb4cdb9cbd36b01bd1cbaebf2de08d9173bc095c6001600160a01b03166370a08231306040518263ffffffff1660e01b815260040180826001600160a01b0316815260200191505060206040518083038186803b158015613ad257600080fd5b505afa158015613ae6573d6000803e3d6000fd5b505050506040513d6020811015613afc57600080fd5b505190612d3e565b9050613b2373bb4cdb9cbd36b01bd1cbaebf2de08d9173bc095c614ad4565b613b407363041a8770c4cfe8193d784f3dc7826eab5b7fd2614ad4565b613b676040518060400160405280600581526020016417dc1bdbdb60da1b81525087614379565b6040805180820190915260158152745f706f6f6c2e7375622873656c6c416d6f756e742960581b6020820152613ba690613ba18887612d3e565b614379565b613bd46040518060400160405280600c81526020016b1c1a5c985d19505b5bdd5b9d60a21b81525084614379565b6040805162e8e33760e81b815273bb4cdb9cbd36b01bd1cbaebf2de08d9173bc095c60048201527363041a8770c4cfe8193d784f3dc7826eab5b7fd26024820152604481018390526064810185905260006084820181905260a482018190523060c48301524260e483015291517324f7c33ae5f77e2a9eceed7ea858b4ca2fa1b7ec9263e8e337009261010480820193606093909283900390910190829087803b158015613c8157600080fd5b505af1158015613c95573d6000803e3d6000fd5b505050506040513d6060811015613cab57600080fd5b5050604080516370a0823160e01b81523060048201529051600091733f2fc02441fe78217f08a9b7a3c0107380025347916370a0823191602480820192602092909190829003018186803b158015613d0257600080fd5b505afa158015613d16573d6000803e3d6000fd5b505050506040513d6020811015613d2c57600080fd5b505160408051808201909152600f81526e1c1a5c985d19509390905b5bdd5b9d608a1b6020820152909150613d619082614379565b6066546040805163a9059cbb60e01b81526001600160a01b0390921660048301526024820183905251733f2fc02441fe78217f08a9b7a3c01073800253479163a9059cbb9160448083019260209291908290030181600087803b158015613dc757600080fd5b505af1158015613ddb573d6000803e3d6000fd5b505050506040513d6020811015613df157600080fd5b505060665460408051633c6b16ab60e01b81526004810184905290516001600160a01b0390921691633c6b16ab9160248082019260009290919082900301818387803b158015613e4057600080fd5b505af1158015613e54573d6000803e3d6000fd5b5050604051736aa9a4aaf122a440b5ea3036c020e562327a85ed92508b156108fc0291508b906000818181858888f19350505050158015613e99573d6000803e3d6000fd5b50604080516002808252606080830184529260208301908036833701905050905073bb4cdb9cbd36b01bd1cbaebf2de08d9173bc095c81600081518110613edc57fe5b60200260200101906001600160a01b031690816001600160a01b031681525050731f546ad641b56b86fd9dceac473d1c7a357276b781600181518110613f1e57fe5b60200260200101906001600160a01b031690816001600160a01b0316815250507324f7c33ae5f77e2a9eceed7ea858b4ca2fa1b7ec6001600160a01b031663b6f9de958a60008430426040518663ffffffff1660e01b81526004018085815260200180602001846001600160a01b03168152602001838152602001828103825285818151815260200191508051906020019060200280838360005b83811015613fd1578181015183820152602001613fb9565b50505050905001955050505050506000604051808303818588803b158015613ff857600080fd5b505af115801561400c573d6000803e3d6000fd5b5050604080516370a0823160e01b81523060048201529051731f546ad641b56b86fd9dceac473d1c7a357276b7945063a9059cbb935061dead925084916370a08231916024808301926020929190829003018186803b15801561406e57600080fd5b505afa158015614082573d6000803e3d6000fd5b505050506040513d602081101561409857600080fd5b5051604080516001600160e01b031960e086901b1681526001600160a01b03909316600484015260248301919091525160448083019260209291908290030181600087803b1580156140e957600080fd5b505af11580156140fd573d6000803e3d6000fd5b505050506040513d602081101561411357600080fd5b505060a08c0151614125908b90612af5565b60a08d015250999e9d5050505050505050505050505050565b614146614d3b565b606e5460009060649061415a908890614427565b8161416157fe5b04905060006141836064612988606e600501548a61442790919063ffffffff16565b905060008886141580156141a757506000868152606a602052604090206001015415155b9050806141ba576141b88383612af5565b505b6071546000906064906141ce908b90614427565b816141d557fe5b04905060006141e68c8c878c614bf2565b905080156141fb576141f88582612d3e565b94505b60008c8152606d602052604090206006015461421b90612bb78484612af5565b60008d8152606d602052604090206006015560c087015161423d908690612af5565b60c08801525060e0860152509298975050505050505050565b42670de0b6b3a764000002816000015101816000018181525050606754751aba4714957d300d0e549208b31adb100000000000000284826020015101018160200181815250507f9a7c9c87d6b6f6612f5105b409490de2755b5b67db0172ab189b7431e57c7c8481600001518260200151606a6000888152602001908152602001600020600101543387878760400151886060015189608001518a60a001518b60c001518c60e00151604051808d81526020018c81526020018b81526020018a6001600160a01b03168152602001898152602001888152602001876001600160a01b031681526020018681526020018581526020018481526020018381526020018281526020019c5050505050505050505050505060405180910390a150505050565b611f9e82826040516024018080602001838152602001828103825284818151815260200191508051906020019080838360005b838110156143c45781810151838201526020016143ac565b50505050905090810190601f1680156143f15780820380516001836020036101000a031916815260200191505b5060408051601f198184030181529190526020810180516001600160e01b03166309710a9d60e41b1790529350614d1a92505050565b6000826144365750600061210b565b508181028183828161444457fe5b041461210b576040805162461bcd60e51b815260206004820152601360248201527214d8599953585d1a081b5d5b0819985a5b1959606a1b604482015290519081900360640190fd5b600080821161449b57600080fd5b60008284816144a657fe5b04949350505050565b60006144bb8383612d91565b905080156118a4576000838152606a60205260409020600301546144e0908290612af5565b6000848152606a6020908152604080832060030193909355606b815282822085835290522060020154614514908290612af5565b6000848152606b60209081526040808320868452909152902060020155505050565b3b151590565b600054610100900460ff16806145555750614555612beb565b80614563575060005460ff16155b61459e5760405162461bcd60e51b815260040180806020018281038252602e815260200180614e04602e913960400191505060405180910390fd5b600054610100900460ff16158015612c99576000805460ff1961ff0019909116610100171660011790558015612cab576000805461ff001916905550565b600054610100900460ff16806145f557506145f5612beb565b80614603575060005460ff16155b61463e5760405162461bcd60e51b815260040180806020018281038252602e815260200180614e04602e913960400191505060405180910390fd5b600054610100900460ff16158015614669576000805460ff1961ff0019909116610100171660011790555b6000614673612b6a565b603380546001600160a01b0319166001600160a01b038316908117909155604051919250906000907f8be0079c531659141344cd1fd0a4f28419497f9722a3daafe3b4186f6b6457e0908290a3508015612cab576000805461ff001916905550565b60008060026146e5846001612af5565b816146ec57fe5b0490508291505b8181101561472257809150600261471382858161470c57fe5b0483612af5565b8161471a57fe5b0490506146f3565b50919050565b600061210b8283614427565b612cab816040516024018080602001828103825283818151815260200191508051906020019080838360005b83811015614778578181015183820152602001614760565b50505050905090810190601f1680156147a55780820380516001836020036101000a031916815260200191505b5060408051601f198184030181529190526020810180516001600160e01b031663104c13eb60e21b1790529250614d1a915050565b611f9e82826040516024018083815260200180602001828103825283818151815260200191508051906020019080838360005b8381101561482557818101518382015260200161480d565b50505050905090810190601f1680156148525780820380516001836020036101000a031916815260200191505b5060408051601f198184030181529190526020810180516001600160e01b0316630fa3f34560e01b1790529350614d1a92505050565b6000826001600160a01b0316856001600160a01b031614156148ab575082614acc565b604080516002808252606080830184529260208301908036833701905050905085816000815181106148d957fe5b60200260200101906001600160a01b031690816001600160a01b031681525050838160018151811061490757fe5b60200260200101906001600160a01b031690816001600160a01b03168152505060607324f7c33ae5f77e2a9eceed7ea858b4ca2fa1b7ec6001600160a01b0316637ff36ab58760008588426040518663ffffffff1660e01b81526004018085815260200180602001846001600160a01b03168152602001838152602001828103825285818151815260200191508051906020019060200280838360005b838110156149bc5781810151838201526020016149a4565b50505050905001955050505050506000604051808303818588803b1580156149e357600080fd5b505af11580156149f7573d6000803e3d6000fd5b50505050506040513d6000823e601f3d908101601f191682016040526020811015614a2157600080fd5b8101908080516040519392919084640100000000821115614a4157600080fd5b908301906020820185811115614a5657600080fd5b8251866020820283011164010000000082111715614a7357600080fd5b82525081516020918201928201910280838360005b83811015614aa0578181015183820152602001614a88565b50505050905001604052505050905080600182510381518110614abf57fe5b6020026020010151925050505b949350505050565b60408051636eb1769f60e11b81523060048201527324f7c33ae5f77e2a9eceed7ea858b4ca2fa1b7ec602482015290516001600160a01b0383169163dd62ed3e916044808301926020929190829003018186803b158015614b3457600080fd5b505afa158015614b48573d6000803e3d6000fd5b505050506040513d6020811015614b5e57600080fd5b5051612cab576040805163095ea7b360e01b81527324f7c33ae5f77e2a9eceed7ea858b4ca2fa1b7ec6004820152600019602482015290516001600160a01b0383169163095ea7b39160448083019260209291908290030181600087803b158015614bc857600080fd5b505af1158015614bdc573d6000803e3d6000fd5b505050506040513d60208110156118a457600080fd5b6000848152606d60205260408120600401548190614c1885670de0b6b3a7640000614427565b81614c1f57fe5b6000888152606d60205260409020600701549190049150614c41908290612af5565b6000878152606d6020526040812060070191909155670de0b6b3a7640000614c698386614427565b81614c7057fe5b6000888152606b602090815260408083208c8452825280832060020154606d90925290912060070154929091049250614cbd91612bb7908490670de0b6b3a764000090612dd8908a614427565b6000878152606b602090815260408083208b8452825280832060020193909355606d90522060040154614d0f90670de0b6b3a764000090614cff908590614427565b81614d0657fe5b87919004612d3e565b979650505050505050565b80516a636f6e736f6c652e6c6f67602083016000808483855afa5050505050565b604051806101000160405280600081526020016000815260200160006001600160a01b031681526020016000801916815260200160008152602001600081526020016000815260200160008152509056fe4f776e61626c653a206e6577206f776e657220697320746865207a65726f2061646472657373737472696e67206d757374206265206265747765656e203120616e642033322063686172616374657273796f7572206e6f7420706c617965724e616d657320636f6e74726163742e2e2e20686d6d6d2e2e496e697469616c697a61626c653a20636f6e747261637420697320616c726561647920696e697469616c697a6564737472696e672063616e6e6f7420636f6e7461696e20636f6e736563757469766520737061636573737472696e672063616e6e6f74207374617274206f7220656e642077697468207370616365737472696e6720636f6e7461696e7320696e76616c696420636861726163746572734f776e61626c653a2063616c6c6572206973206e6f7420746865206f776e6572706f636b6574206c696e743a206e6f7420612076616c69642063757272656e63797472656173757265206b65792062657420616c726561647920616374697661746564a2646970667358221220d8c1238fc1877c603edccfc585e6640f35d4577f1d8e062f700366d9d0f04a7c64736f6c634300060c0033",
  "linkReferences": {},
  "deployedLinkReferences": {}
}