{
  "_format": "hh-sol-artifact-1",
  "contractName": "PlayerBook",
  "sourceName": "contracts/PlayerBook.sol",
  "abi": [
    {
      "anonymous": false,
      "inputs": [
        {
          "indexed": true,
          "internalType": "address",
          "name": "previousOwner",
          "type": "address"
        },
        {
          "indexed": true,
          "internalType": "address",
          "name": "newOwner",
          "type": "address"
        }
      ],
      "name": "OwnershipTransferred",
      "type": "event"
    },
    {
      "anonymous": false,
      "inputs": [
        {
          "indexed": true,
          "internalType": "uint256",
          "name": "playerID",
          "type": "uint256"
        },
        {
          "indexed": true,
          "internalType": "address",
          "name": "playerAddress",
          "type": "address"
        },
        {
          "indexed": true,
          "internalType": "bytes32",
          "name": "playerName",
          "type": "bytes32"
        },
        {
          "indexed": false,
          "internalType": "bool",
          "name": "isNewPlayer",
          "type": "bool"
        },
        {
          "indexed": false,
          "internalType": "uint256",
          "name": "affiliateID",
          "type": "uint256"
        },
        {
          "indexed": false,
          "internalType": "address",
          "name": "affiliateAddress",
          "type": "address"
        },
        {
          "indexed": false,
          "internalType": "bytes32",
          "name": "affiliateName",
          "type": "bytes32"
        },
        {
          "indexed": false,
          "internalType": "uint256",
          "name": "amountPaid",
          "type": "uint256"
        },
        {
          "indexed": false,
          "internalType": "uint256",
          "name": "timeStamp",
          "type": "uint256"
        }
      ],
      "name": "onNewName",
      "type": "event"
    },
    {
      "inputs": [
        {
          "internalType": "address",
          "name": "_gameAddress",
          "type": "address"
        },
        {
          "internalType": "string",
          "name": "_gameNameStr",
          "type": "string"
        }
      ],
      "name": "addGame",
      "outputs": [],
      "stateMutability": "nonpayable",
      "type": "function"
    },
    {
      "inputs": [],
      "name": "addMeToAllGames",
      "outputs": [],
      "stateMutability": "nonpayable",
      "type": "function"
    },
    {
      "inputs": [
        {
          "internalType": "uint256",
          "name": "_gameID",
          "type": "uint256"
        }
      ],
      "name": "addMeToGame",
      "outputs": [],
      "stateMutability": "nonpayable",
      "type": "function"
    },
    {
      "inputs": [
        {
          "internalType": "bytes32",
          "name": "_whatFunction",
          "type": "bytes32"
        }
      ],
      "name": "checkData",
      "outputs": [
        {
          "internalType": "bytes32",
          "name": "",
          "type": "bytes32"
        },
        {
          "internalType": "uint256",
          "name": "",
          "type": "uint256"
        }
      ],
      "stateMutability": "view",
      "type": "function"
    },
    {
      "inputs": [
        {
          "internalType": "string",
          "name": "_nameStr",
          "type": "string"
        }
      ],
      "name": "checkIfNameValid",
      "outputs": [
        {
          "internalType": "bool",
          "name": "",
          "type": "bool"
        }
      ],
      "stateMutability": "view",
      "type": "function"
    },
    {
      "inputs": [
        {
          "internalType": "bytes32",
          "name": "_whatFunction",
          "type": "bytes32"
        },
        {
          "internalType": "uint256",
          "name": "_signerA",
          "type": "uint256"
        },
        {
          "internalType": "uint256",
          "name": "_signerB",
          "type": "uint256"
        },
        {
          "internalType": "uint256",
          "name": "_signerC",
          "type": "uint256"
        }
      ],
      "name": "checkSignersByAddress",
      "outputs": [
        {
          "internalType": "address",
          "name": "",
          "type": "address"
        },
        {
          "internalType": "address",
          "name": "",
          "type": "address"
        },
        {
          "internalType": "address",
          "name": "",
          "type": "address"
        }
      ],
      "stateMutability": "view",
      "type": "function"
    },
    {
      "inputs": [
        {
          "internalType": "bytes32",
          "name": "_whatFunction",
          "type": "bytes32"
        },
        {
          "internalType": "uint256",
          "name": "_signerA",
          "type": "uint256"
        },
        {
          "internalType": "uint256",
          "name": "_signerB",
          "type": "uint256"
        },
        {
          "internalType": "uint256",
          "name": "_signerC",
          "type": "uint256"
        }
      ],
      "name": "checkSignersByName",
      "outputs": [
        {
          "internalType": "bytes32",
          "name": "",
          "type": "bytes32"
        },
        {
          "internalType": "bytes32",
          "name": "",
          "type": "bytes32"
        },
        {
          "internalType": "bytes32",
          "name": "",
          "type": "bytes32"
        }
      ],
      "stateMutability": "view",
      "type": "function"
    },
    {
      "inputs": [
        {
          "internalType": "bytes32",
          "name": "_whatFunction",
          "type": "bytes32"
        }
      ],
      "name": "deleteAnyProposal",
      "outputs": [],
      "stateMutability": "nonpayable",
      "type": "function"
    },
    {
      "inputs": [],
      "name": "gID_",
      "outputs": [
        {
          "internalType": "uint256",
          "name": "",
          "type": "uint256"
        }
      ],
      "stateMutability": "view",
      "type": "function"
    },
    {
      "inputs": [
        {
          "internalType": "address",
          "name": "",
          "type": "address"
        }
      ],
      "name": "gameIDs_",
      "outputs": [
        {
          "internalType": "uint256",
          "name": "",
          "type": "uint256"
        }
      ],
      "stateMutability": "view",
      "type": "function"
    },
    {
      "inputs": [
        {
          "internalType": "address",
          "name": "",
          "type": "address"
        }
      ],
      "name": "gameNames_",
      "outputs": [
        {
          "internalType": "bytes32",
          "name": "",
          "type": "bytes32"
        }
      ],
      "stateMutability": "view",
      "type": "function"
    },
    {
      "inputs": [
        {
          "internalType": "uint256",
          "name": "",
          "type": "uint256"
        }
      ],
      "name": "games_",
      "outputs": [
        {
          "internalType": "contract PlayerBookReceiverInterface",
          "name": "",
          "type": "address"
        }
      ],
      "stateMutability": "view",
      "type": "function"
    },
    {
      "inputs": [],
      "name": "getNameFee",
      "outputs": [
        {
          "internalType": "uint256",
          "name": "",
          "type": "uint256"
        }
      ],
      "stateMutability": "view",
      "type": "function"
    },
    {
      "inputs": [
        {
          "internalType": "uint256",
          "name": "_pID",
          "type": "uint256"
        }
      ],
      "name": "getPlayerAddr",
      "outputs": [
        {
          "internalType": "address",
          "name": "",
          "type": "address"
        }
      ],
      "stateMutability": "view",
      "type": "function"
    },
    {
      "inputs": [
        {
          "internalType": "address",
          "name": "_addr",
          "type": "address"
        }
      ],
      "name": "getPlayerID",
      "outputs": [
        {
          "internalType": "uint256",
          "name": "",
          "type": "uint256"
        }
      ],
      "stateMutability": "nonpayable",
      "type": "function"
    },
    {
      "inputs": [
        {
          "internalType": "uint256",
          "name": "_pID",
          "type": "uint256"
        }
      ],
      "name": "getPlayerLAff",
      "outputs": [
        {
          "internalType": "uint256",
          "name": "",
          "type": "uint256"
        }
      ],
      "stateMutability": "view",
      "type": "function"
    },
    {
      "inputs": [
        {
          "internalType": "uint256",
          "name": "_pID",
          "type": "uint256"
        }
      ],
      "name": "getPlayerName",
      "outputs": [
        {
          "internalType": "bytes32",
          "name": "",
          "type": "bytes32"
        }
      ],
      "stateMutability": "view",
      "type": "function"
    },
    {
      "inputs": [
        {
          "internalType": "address",
          "name": "_team",
          "type": "address"
        }
      ],
      "name": "initialize",
      "outputs": [],
      "stateMutability": "nonpayable",
      "type": "function"
    },
    {
      "inputs": [],
      "name": "owner",
      "outputs": [
        {
          "internalType": "address",
          "name": "",
          "type": "address"
        }
      ],
      "stateMutability": "view",
      "type": "function"
    },
    {
      "inputs": [],
      "name": "pID_",
      "outputs": [
        {
          "internalType": "uint256",
          "name": "",
          "type": "uint256"
        }
      ],
      "stateMutability": "view",
      "type": "function"
    },
    {
      "inputs": [
        {
          "internalType": "address",
          "name": "",
          "type": "address"
        }
      ],
      "name": "pIDxAddr_",
      "outputs": [
        {
          "internalType": "uint256",
          "name": "",
          "type": "uint256"
        }
      ],
      "stateMutability": "view",
      "type": "function"
    },
    {
      "inputs": [
        {
          "internalType": "bytes32",
          "name": "",
          "type": "bytes32"
        }
      ],
      "name": "pIDxName_",
      "outputs": [
        {
          "internalType": "uint256",
          "name": "",
          "type": "uint256"
        }
      ],
      "stateMutability": "view",
      "type": "function"
    },
    {
      "inputs": [
        {
          "internalType": "uint256",
          "name": "",
          "type": "uint256"
        },
        {
          "internalType": "uint256",
          "name": "",
          "type": "uint256"
        }
      ],
      "name": "plyrNameList_",
      "outputs": [
        {
          "internalType": "bytes32",
          "name": "",
          "type": "bytes32"
        }
      ],
      "stateMutability": "view",
      "type": "function"
    },
    {
      "inputs": [
        {
          "internalType": "uint256",
          "name": "",
          "type": "uint256"
        },
        {
          "internalType": "bytes32",
          "name": "",
          "type": "bytes32"
        }
      ],
      "name": "plyrNames_",
      "outputs": [
        {
          "internalType": "bool",
          "name": "",
          "type": "bool"
        }
      ],
      "stateMutability": "view",
      "type": "function"
    },
    {
      "inputs": [
        {
          "internalType": "uint256",
          "name": "",
          "type": "uint256"
        }
      ],
      "name": "plyr_",
      "outputs": [
        {
          "internalType": "address",
          "name": "addr",
          "type": "address"
        },
        {
          "internalType": "bytes32",
          "name": "name",
          "type": "bytes32"
        },
        {
          "internalType": "uint256",
          "name": "laff",
          "type": "uint256"
        },
        {
          "internalType": "uint256",
          "name": "names",
          "type": "uint256"
        }
      ],
      "stateMutability": "view",
      "type": "function"
    },
    {
      "inputs": [
        {
          "internalType": "address",
          "name": "_referrer",
          "type": "address"
        },
        {
          "internalType": "uint256",
          "name": "_commission",
          "type": "uint256"
        }
      ],
      "name": "recordReferralCommission",
      "outputs": [],
      "stateMutability": "nonpayable",
      "type": "function"
    },
    {
      "inputs": [
        {
          "internalType": "string",
          "name": "_nameString",
          "type": "string"
        },
        {
          "internalType": "uint256",
          "name": "_affCode",
          "type": "uint256"
        },
        {
          "internalType": "bool",
          "name": "_all",
          "type": "bool"
        }
      ],
      "name": "registerNameXID",
      "outputs": [],
      "stateMutability": "payable",
      "type": "function"
    },
    {
      "inputs": [
        {
          "internalType": "address",
          "name": "_addr",
          "type": "address"
        },
        {
          "internalType": "bytes32",
          "name": "_name",
          "type": "bytes32"
        },
        {
          "internalType": "bytes32",
          "name": "_affCode",
          "type": "bytes32"
        },
        {
          "internalType": "bool",
          "name": "_all",
          "type": "bool"
        }
      ],
      "name": "registerNameXnameFromDapp",
      "outputs": [
        {
          "internalType": "bool",
          "name": "",
          "type": "bool"
        },
        {
          "internalType": "uint256",
          "name": "",
          "type": "uint256"
        }
      ],
      "stateMutability": "payable",
      "type": "function"
    },
    {
      "inputs": [],
      "name": "registrationFee_",
      "outputs": [
        {
          "internalType": "uint256",
          "name": "",
          "type": "uint256"
        }
      ],
      "stateMutability": "view",
      "type": "function"
    },
    {
      "inputs": [],
      "name": "renounceOwnership",
      "outputs": [],
      "stateMutability": "nonpayable",
      "type": "function"
    },
    {
      "inputs": [
        {
          "internalType": "uint256",
          "name": "_fee",
          "type": "uint256"
        }
      ],
      "name": "setRegistrationFee",
      "outputs": [],
      "stateMutability": "nonpayable",
      "type": "function"
    },
    {
      "inputs": [
        {
          "internalType": "address",
          "name": "",
          "type": "address"
        }
      ],
      "name": "totalReferralCommissions",
      "outputs": [
        {
          "internalType": "uint256",
          "name": "",
          "type": "uint256"
        }
      ],
      "stateMutability": "view",
      "type": "function"
    },
    {
      "inputs": [
        {
          "internalType": "address",
          "name": "newOwner",
          "type": "address"
        }
      ],
      "name": "transferOwnership",
      "outputs": [],
      "stateMutability": "nonpayable",
      "type": "function"
    },
    {
      "inputs": [
        {
          "internalType": "string",
          "name": "_nameString",
          "type": "string"
        }
      ],
      "name": "useMyOldName",
      "outputs": [],
      "stateMutability": "nonpayable",
      "type": "function"
    }
  ],
  "bytecode": "0x608060405234801561001057600080fd5b506130d8806100206000396000f3fe6080604052600436106101f95760003560e01c80638da5cb5b1161010d578063c4d66de8116100a0578063de7874f31161006f578063de7874f314610960578063e3c08adf146109ba578063e56556a9146109e4578063ed3643d614610a17578063f2fde38b14610a71576101f9565b8063c4d66de814610897578063d5241279146108ca578063dbbcaa97146108f4578063dc1694b814610927576101f9565b8063a553506e116100dc578063a553506e14610764578063b9291296146107a7578063b9eca0c814610858578063c320c7271461086d576101f9565b80638da5cb5b14610641578063921dec21146106565780639ecfc6ea14610701578063a448ed4b14610734576101f9565b80633fda926e11610190578063715018a61161015f578063715018a61461051c578063745ea0c114610531578063768f930d1461058657806381c5b206146105ed57806382e37b2c14610617576101f9565b80633fda926e1461034f5780634b227176146104105780634d0d35ff146104255780636c52660d1461046b576101f9565b80632614195f116101cc5780632614195f146102995780632660316e146102ae57806327249e61146102f25780632e19ebdc14610325576101f9565b80630c6940ea146101fe5780630efcf2951461021557806310f01eba1461023f578063180603eb14610284575b600080fd5b34801561020a57600080fd5b50610213610aa4565b005b34801561022157600080fd5b506102136004803603602081101561023857600080fd5b5035610ca3565b34801561024b57600080fd5b506102726004803603602081101561026257600080fd5b50356001600160a01b0316610d6c565b60408051918252519081900360200190f35b34801561029057600080fd5b50610272610d7e565b3480156102a557600080fd5b50610272610d84565b3480156102ba57600080fd5b506102de600480360360408110156102d157600080fd5b5080359060200135610d8a565b604080519115158252519081900360200190f35b3480156102fe57600080fd5b506102726004803603602081101561031557600080fd5b50356001600160a01b0316610daa565b34801561033157600080fd5b506102726004803603602081101561034857600080fd5b5035610dbc565b34801561035b57600080fd5b506102136004803603604081101561037257600080fd5b6001600160a01b038235169190810190604081016020820135600160201b81111561039c57600080fd5b8201836020820111156103ae57600080fd5b803590602001918460018302840111600160201b831117156103cf57600080fd5b91908080601f016020809104026020016040519081016040528093929190818152602001838380828437600092019190915250929550610dce945050505050565b34801561041c57600080fd5b50610272611035565b34801561043157600080fd5b5061044f6004803603602081101561044857600080fd5b503561103b565b604080516001600160a01b039092168252519081900360200190f35b34801561047757600080fd5b506102de6004803603602081101561048e57600080fd5b810190602081018135600160201b8111156104a857600080fd5b8201836020820111156104ba57600080fd5b803590602001918460018302840111600160201b831117156104db57600080fd5b91908080601f016020809104026020016040519081016040528093929190818152602001838380828437600092019190915250929550611059945050505050565b34801561052857600080fd5b5061021361108f565b61056b6004803603608081101561054757600080fd5b506001600160a01b038135169060208101359060408101359060600135151561114d565b60408051921515835260208301919091528051918290030190f35b34801561059257600080fd5b506105c2600480360360808110156105a957600080fd5b508035906020810135906040810135906060013561123e565b604080516001600160a01b039485168152928416602084015292168183015290519081900360600190f35b3480156105f957600080fd5b506102136004803603602081101561061057600080fd5b5035611334565b34801561062357600080fd5b506102726004803603602081101561063a57600080fd5b5035611560565b34801561064d57600080fd5b5061044f611575565b6102136004803603606081101561066c57600080fd5b810190602081018135600160201b81111561068657600080fd5b82018360208201111561069857600080fd5b803590602001918460018302840111600160201b831117156106b957600080fd5b91908080601f01602080910402602001604051908101604052809392919081815260200183838082843760009201919091525092955050823593505050602001351515611584565b34801561070d57600080fd5b506102726004803603602081101561072457600080fd5b50356001600160a01b03166116b4565b34801561074057600080fd5b506102726004803603604081101561075757600080fd5b50803590602001356116c6565b34801561077057600080fd5b5061078e6004803603602081101561078757600080fd5b50356116e3565b6040805192835260208301919091528051918290030190f35b3480156107b357600080fd5b50610213600480360360208110156107ca57600080fd5b810190602081018135600160201b8111156107e457600080fd5b8201836020820111156107f657600080fd5b803590602001918460018302840111600160201b8311171561081757600080fd5b91908080601f0160208091040260200160405190810160405280939291908181526020018383808284376000920191909152509295506117c2945050505050565b34801561086457600080fd5b506102726118b2565b34801561087957600080fd5b506102136004803603602081101561089057600080fd5b50356118b8565b3480156108a357600080fd5b50610213600480360360208110156108ba57600080fd5b50356001600160a01b03166119be565b3480156108d657600080fd5b5061044f600480360360208110156108ed57600080fd5b5035611c3b565b34801561090057600080fd5b506102726004803603602081101561091757600080fd5b50356001600160a01b0316611c56565b34801561093357600080fd5b506102136004803603604081101561094a57600080fd5b506001600160a01b038135169060200135611c68565b34801561096c57600080fd5b5061098a6004803603602081101561098357600080fd5b5035611cc0565b604080516001600160a01b0390951685526020850193909352838301919091526060830152519081900360800190f35b3480156109c657600080fd5b50610272600480360360208110156109dd57600080fd5b5035611cf1565b3480156109f057600080fd5b5061027260048036036020811015610a0757600080fd5b50356001600160a01b0316611d06565b348015610a2357600080fd5b50610a5360048036036080811015610a3a57600080fd5b5080359060208101359060408101359060600135611d45565b60408051938452602084019290925282820152519081900360600190f35b348015610a7d57600080fd5b5061021360048036036020811015610a9457600080fd5b50356001600160a01b0316611fa9565b33803b8015610aee576040805162461bcd60e51b8152602060048201526011602482015270736f7272792068756d616e73206f6e6c7960781b604482015290519081900360640190fd5b336000818152606d602052604090205480610b3a5760405162461bcd60e51b815260040180806020018281038252602e81526020018061304f602e913960400191505060405180910390fd5b6000818152606f602052604090206002810154600382015460019283015491929091905b606b548111610c99576000818152606860205260408082205481516349cc635d60e01b8152600481018990526001600160a01b038a811660248301526044820187905260648201899052925192909116926349cc635d9260848084019382900301818387803b158015610bd057600080fd5b505af1158015610be4573d6000803e3d6000fd5b505050506001831115610c915760015b838111610c8f57600082815260686020908152604080832054898452607183528184208585529092528083205481516347b8a07560e11b8152600481018b9052602481019190915290516001600160a01b0390921692638f7140ea9260448084019382900301818387803b158015610c6b57600080fd5b505af1158015610c7f573d6000803e3d6000fd5b505060019092019150610bf49050565b505b600101610b5e565b5050505050505050565b60655460408051630c3f64bf60e01b815233600482015290516001600160a01b0390921691630c3f64bf91602480820192602092909190829003018186803b158015610cee57600080fd5b505afa158015610d02573d6000803e3d6000fd5b505050506040513d6020811015610d1857600080fd5b50511515600114610d5e576040805162461bcd60e51b81526020600482015260176024820152600080516020612f69833981519152604482015290519081900360640190fd5b610d696066826120be565b50565b606d6020526000908152604090205481565b60675481565b60675490565b607060209081526000928352604080842090915290825290205460ff1681565b60696020526000908152604090205481565b606e6020526000908152604090205481565b60655460408051630c3f64bf60e01b815233600482015290516001600160a01b0390921691630c3f64bf91602480820192602092909190829003018186803b158015610e1957600080fd5b505afa158015610e2d573d6000803e3d6000fd5b505050506040513d6020811015610e4357600080fd5b50511515600114610e89576040805162461bcd60e51b81526020600482015260176024820152600080516020612f69833981519152604482015290519081900360640190fd5b6001600160a01b0382166000908152606a602052604090205415610ede5760405162461bcd60e51b8152600401808060200182810382526028815260200180612f176028913960400191505060405180910390fd5b610ef16661646447616d6560c81b61215f565b15156001141561103157610f0e6661646447616d6560c81b610d5e565b606b805460010190556000610f22826121ec565b606b80546001600160a01b038087166000818152606a602090815260408083209590955560698152848220879055855482526068815284822080546001600160a01b03191690931790925593548452828420546001808652606f9092527f6e075724c97aa8b42d86406682b25042490cf37e8d91270a79e54ad319c8b085547f6e075724c97aa8b42d86406682b25042490cf37e8d91270a79e54ad319c8b0865485516349cc635d60e01b81526004810194909452908416602484015260448301526064820185905292519495509116926349cc635d9260848084019391929182900301818387803b15801561101757600080fd5b505af115801561102b573d6000803e3d6000fd5b50505050505b5050565b606c5481565b6000818152606f60205260409020546001600160a01b03165b919050565b600080611065836121ec565b6000818152606e6020526040902054909150611085576001915050611054565b6000915050611054565b6110976126d8565b6001600160a01b03166110a8611575565b6001600160a01b031614611103576040805162461bcd60e51b815260206004820181905260248201527f4f776e61626c653a2063616c6c6572206973206e6f7420746865206f776e6572604482015290519081900360640190fd5b6033546040516000916001600160a01b0316907f8be0079c531659141344cd1fd0a4f28419497f9722a3daafe3b4186f6b6457e0908390a3603380546001600160a01b0319169055565b336000908152606a6020526040812054819061116857600080fd5b6067543410156111a95760405162461bcd60e51b815260040180806020018281038252602681526020018061307d6026913960400191505060405180910390fd5b60006111b4876126dc565b6001600160a01b0388166000908152606d602052604081205491925086158015906111df5750878714155b1561122157506000868152606e6020908152604080832054848452606f909252909120600201548114611221576000828152606f602052604090206002018190555b61122f828a838b878b61274f565b91989197509095505050505050565b60655460408051630c3f64bf60e01b81523360048201529051600092839283926001600160a01b0390921691630c3f64bf91602480820192602092909190829003018186803b15801561129057600080fd5b505afa1580156112a4573d6000803e3d6000fd5b505050506040513d60208110156112ba57600080fd5b50511515600114611300576040805162461bcd60e51b81526020600482015260176024820152600080516020612f69833981519152604482015290519081900360640190fd5b61130c606688886129cd565b611318606689886129cd565b61132460668a886129cd565b9250925092509450945094915050565b33803b801561137e576040805162461bcd60e51b8152602060048201526011602482015270736f7272792068756d616e73206f6e6c7960781b604482015290519081900360640190fd5b606b548311156113bf5760405162461bcd60e51b81526004018080602001828103825260298152602001806130046029913960400191505060405180910390fd5b336000818152606d60205260409020548061140b5760405162461bcd60e51b815260040180806020018281038252602e81526020018061304f602e913960400191505060405180910390fd5b6000818152606f6020818152604080842060038101548a8652606884528286205487875294909352600181015460029091015482516349cc635d60e01b8152600481018890526001600160a01b03898116602483015260448201939093526064810191909152915192949316926349cc635d9260848084019382900301818387803b15801561149957600080fd5b505af11580156114ad573d6000803e3d6000fd5b5050505060018111156115585760015b81811161102b57600087815260686020908152604080832054868452607183528184208585529092528083205481516347b8a07560e11b815260048101889052602481019190915290516001600160a01b0390921692638f7140ea9260448084019382900301818387803b15801561153457600080fd5b505af1158015611548573d6000803e3d6000fd5b5050600190920191506114bd9050565b505050505050565b6000908152606f602052604090206001015490565b6033546001600160a01b031690565b33803b80156115ce576040805162461bcd60e51b8152602060048201526011602482015270736f7272792068756d616e73206f6e6c7960781b604482015290519081900360640190fd5b60675434101561160f5760405162461bcd60e51b815260040180806020018281038252602681526020018061307d6026913960400191505060405180910390fd5b600061161a866121ec565b9050336000611628826126dc565b6001600160a01b0383166000908152606d6020526040902054909150871580159061166457506000818152606f60205260409020600201548814155b80156116705750808814155b1561168e576000818152606f6020526040902060020188905561169b565b8088141561169b57600097505b6116a981848a87868c61274f565b505050505050505050565b60726020526000908152604090205481565b607160209081526000928352604080842090915290825290205481565b60655460408051630c3f64bf60e01b8152336004820152905160009283926001600160a01b0390911691630c3f64bf91602480820192602092909190829003018186803b15801561173357600080fd5b505afa158015611747573d6000803e3d6000fd5b505050506040513d602081101561175d57600080fd5b505115156001146117a3576040805162461bcd60e51b81526020600482015260176024820152600080516020612f69833981519152604482015290519081900360640190fd5b6117ae606684612a4b565b6117b9606685612a6f565b91509150915091565b33803b801561180c576040805162461bcd60e51b8152602060048201526011602482015270736f7272792068756d616e73206f6e6c7960781b604482015290519081900360640190fd5b6000611817846121ec565b336000908152606d602090815260408083205480845260708352818420858552909252909120549192509060ff16151560011461189b576040805162461bcd60e51b815260206004820152601f60248201527f756d6d2e2e2e207468617473206e6f742061206e616d6520796f75206f776e00604482015290519081900360640190fd5b6000908152606f6020526040902060010155505050565b606b5481565b60655460408051630c3f64bf60e01b815233600482015290516001600160a01b0390921691630c3f64bf91602480820192602092909190829003018186803b15801561190357600080fd5b505afa158015611917573d6000803e3d6000fd5b505050506040513d602081101561192d57600080fd5b50511515600114611973576040805162461bcd60e51b81526020600482015260176024820152600080516020612f69833981519152604482015290519081900360640190fd5b61199171736574526567697374726174696f6e46656560701b61215f565b151560011415610d69576119b971736574526567697374726174696f6e46656560701b610d5e565b606755565b600054610100900460ff16806119d757506119d7612a96565b806119e5575060005460ff16155b611a205760405162461bcd60e51b815260040180806020018281038252602e815260200180612f89602e913960400191505060405180910390fd5b600054610100900460ff16158015611a4b576000805460ff1961ff0019909116610100171660011790555b611a53612aa7565b6000611a5d611575565b6001600160a01b03161415611aad576040805162461bcd60e51b81526020600482015260116024820152701bdddb995c881b5d5cdd081899481cd95d607a1b604482015290519081900360640190fd5b7f6e075724c97aa8b42d86406682b25042490cf37e8d91270a79e54ad319c8b0858054736aa9a4aaf122a440b5ea3036c020e562327a85ed6001600160a01b031991821617909155673232b83637bcb2b960c11b7f6e075724c97aa8b42d86406682b25042490cf37e8d91270a79e54ad319c8b08681905560017f6e075724c97aa8b42d86406682b25042490cf37e8d91270a79e54ad319c8b0888190557f1a2ddd485d9a636fcbe1fbc2dfccee39463cd874b2d6984e11aef5b331e1e5db8190557f76807c66f51e0562f5868fa50393be912bb0a905c01440e0a416d3f27d1386fc8190557f10c57758a9b4ccfb779d82622597ccea04c66c39ffa1e8ddb9f2362731aba31e805460ff19168217905560008181527f169c6be1b0e6ab5de76b532e587a77340130ac65c5591db02be822dcf1dc0ed66020527f87c677c73bc364d42e939f5c1158e600ac41ba3e322a870c5e627f208d4380d392909255606c55606755606580549091166001600160a01b0384161790558015611031576000805461ff00191690555050565b6068602052600090815260409020546001600160a01b031681565b606a6020526000908152604090205481565b336000908152606a6020526040902054611c8157600080fd5b6001600160a01b03821615801590611c995750600081115b15611031576001600160a01b03821660009081526072602052604090208054820190555050565b606f6020526000908152604090208054600182015460028301546003909301546001600160a01b0390921692909184565b6000908152606f602052604090206002015490565b336000908152606a6020526040812054611d1f57600080fd5b611d28826126dc565b50506001600160a01b03166000908152606d602052604090205490565b60655460408051630c3f64bf60e01b81523360048201529051600092839283926001600160a01b0390921691630c3f64bf91602480820192602092909190829003018186803b158015611d9757600080fd5b505afa158015611dab573d6000803e3d6000fd5b505050506040513d6020811015611dc157600080fd5b50511515600114611e07576040805162461bcd60e51b81526020600482015260176024820152600080516020612f69833981519152604482015290519081900360640190fd5b6065546001600160a01b031663af1c084d611e2460668a8a6129cd565b6040518263ffffffff1660e01b815260040180826001600160a01b0316815260200191505060206040518083038186803b158015611e6157600080fd5b505afa158015611e75573d6000803e3d6000fd5b505050506040513d6020811015611e8b57600080fd5b50516065546001600160a01b031663af1c084d611eaa60668b8a6129cd565b6040518263ffffffff1660e01b815260040180826001600160a01b0316815260200191505060206040518083038186803b158015611ee757600080fd5b505afa158015611efb573d6000803e3d6000fd5b505050506040513d6020811015611f1157600080fd5b50516065546001600160a01b031663af1c084d611f3060668c8a6129cd565b6040518263ffffffff1660e01b815260040180826001600160a01b0316815260200191505060206040518083038186803b158015611f6d57600080fd5b505afa158015611f81573d6000803e3d6000fd5b505050506040513d6020811015611f9757600080fd5b50519199909850909650945050505050565b611fb16126d8565b6001600160a01b0316611fc2611575565b6001600160a01b03161461201d576040805162461bcd60e51b815260206004820181905260248201527f4f776e61626c653a2063616c6c6572206973206e6f7420746865206f776e6572604482015290519081900360640190fd5b6001600160a01b0381166120625760405162461bcd60e51b8152600401808060200182810382526026815260200180612ef16026913960400191505060405180910390fd5b6033546040516001600160a01b038084169216907f8be0079c531659141344cd1fd0a4f28419497f9722a3daafe3b4186f6b6457e090600090a3603380546001600160a01b0319166001600160a01b0392909216919091179055565b60006120c982612b58565b90506000805b600083815260208690526040902060010154811015612144576000838152602086815260408083208484526003810180845282852080546001600160a01b031680875260029093018552928520805460ff19169055938590529290915280546001600160a01b031916905591506001016120cf565b50506000908152602092909252506040812081815560010155565b60006121e66066606560009054906101000a90046001600160a01b03166001600160a01b031663fcf2f85f6040518163ffffffff1660e01b815260040160206040518083038186803b1580156121b457600080fd5b505afa1580156121c8573d6000803e3d6000fd5b505050506040513d60208110156121de57600080fd5b505184612b87565b92915050565b80516000908290602081118015906122045750600081115b61223f5760405162461bcd60e51b815260040180806020018281038252602a815260200180612f3f602a913960400191505060405180910390fd5b8160008151811061224c57fe5b6020910101516001600160f81b031916600160fd1b14801590612291575081600182038151811061227957fe5b6020910101516001600160f81b031916600160fd1b14155b6122cc5760405162461bcd60e51b8152600401808060200182810382526025815260200180612fdf6025913960400191505060405180910390fd5b816000815181106122d957fe5b6020910101516001600160f81b031916600360fc1b14156123de578160018151811061230157fe5b6020910101516001600160f81b031916600f60fb1b1415612369576040805162461bcd60e51b815260206004820152601b60248201527f737472696e672063616e6e6f7420737461727420776974682030780000000000604482015290519081900360640190fd5b8160018151811061237657fe5b6020910101516001600160f81b031916600b60fb1b14156123de576040805162461bcd60e51b815260206004820152601b60248201527f737472696e672063616e6e6f7420737461727420776974682030580000000000604482015290519081900360640190fd5b6000805b8281101561267457604060f81b8482815181106123fb57fe5b01602001516001600160f81b0319161180156124345750605b60f81b84828151811061242357fe5b01602001516001600160f81b031916105b1561248b5783818151811061244557fe5b602001015160f81c60f81b60f81c60200160f81b84828151811061246557fe5b60200101906001600160f81b031916908160001a9053508161248657600191505b61266c565b83818151811061249757fe5b6020910101516001600160f81b031916600160fd1b14806124fd5750606060f81b8482815181106124c457fe5b01602001516001600160f81b0319161180156124fd5750607b60f81b8482815181106124ec57fe5b01602001516001600160f81b031916105b8061254d5750602f60f81b84828151811061251457fe5b01602001516001600160f81b03191611801561254d5750603a60f81b84828151811061253c57fe5b01602001516001600160f81b031916105b6125885760405162461bcd60e51b815260040180806020018281038252602281526020018061302d6022913960400191505060405180910390fd5b83818151811061259457fe5b6020910101516001600160f81b031916600160fd1b1415612610578381600101815181106125be57fe5b6020910101516001600160f81b031916600160fd1b14156126105760405162461bcd60e51b8152600401808060200182810382526028815260200180612fb76028913960400191505060405180910390fd5b811580156126625750603060f81b84828151811061262a57fe5b01602001516001600160f81b03191610806126625750603960f81b84828151811061265157fe5b01602001516001600160f81b031916115b1561266c57600191505b6001016123e2565b506001811515146126cc576040805162461bcd60e51b815260206004820152601d60248201527f737472696e672063616e6e6f74206265206f6e6c79206e756d62657273000000604482015290519081900360640190fd5b50506020015192915050565b3390565b6001600160a01b0381166000908152606d60205260408120546127475750606c80546001908101918290556001600160a01b0383166000818152606d60209081526040808320869055948252606f90529290922080546001600160a01b031916909217909155611054565b506000611054565b6000838152606e6020526040902054156127d657600086815260706020908152604080832086845290915290205460ff1615156001146127d6576040805162461bcd60e51b815260206004820152601e60248201527f736f7272792074686174206e616d657320616c72656164792074616b656e0000604482015290519081900360640190fd5b6000868152606f60209081526040808320600101869055858352606e82528083208990558883526070825280832086845290915290205460ff166128645760008681526070602090815260408083208684528252808320805460ff19166001908117909155898452606f83528184206003018054909101908190556071835281842090845290915290208390555b604051736aa9a4aaf122a440b5ea3036c020e562327a85ed904780156108fc02916000818181858888f193505050501580156128a4573d6000803e3d6000fd5b506001811515141561294b5760015b606b548111612949576000818152606860205260408082205481516349cc635d60e01b8152600481018b90526001600160a01b038a8116602483015260448201899052606482018a9052925192909116926349cc635d9260848084019382900301818387803b15801561292557600080fd5b505af1158015612939573d6000803e3d6000fd5b5050600190920191506128b39050565b505b6000848152606f60209081526040918290208054600190910154835186151581529283018890526001600160a01b039182168385015260608301523460808301524260a08301529151859288169189917fdd6176433ff5026bbce96b068584b7bbe3514227e72df9c630b749ae87e644429181900360c00190a4505050505050565b6000808211612a0d5760405162461bcd60e51b8152600401808060200182810382526028815260200180612ec96028913960400191505060405180910390fd5b6000612a1884612b58565b600090815260208681526040808320600019870184526003019091529020546001600160a01b03169150505b9392505050565b600080612a5783612b58565b60009081526020859052604090205491505092915050565b600080612a7b83612b58565b60009081526020859052604090206001015491505092915050565b6000612aa130612d29565b15905090565b600054610100900460ff1680612ac05750612ac0612a96565b80612ace575060005460ff16155b612b095760405162461bcd60e51b815260040180806020018281038252602e815260200180612f89602e913960400191505060405180910390fd5b600054610100900460ff16158015612b34576000805460ff1961ff0019909116610100171660011790555b612b3c612d2f565b612b44612dcf565b8015610d69576000805461ff001916905550565b604080516020808201939093523060601b81830152815180820360340181526054909101909152805191012090565b600080612b9383612b58565b6000818152602087905260408082206001015490519293509133919081903690808383808284376040519201829003909120945050508415159150612c549050576000848152602089815260408083208481556001600160a01b038616808552600282018452828520805460ff1916600190811790915588865260038301855292852080546001600160a01b031916909117905592879052908a9052908101805490910190819055871415612c4f576001945050505050612a44565b612d1e565b600084815260208990526040902054811415612d1e576000848152602089815260408083206001600160a01b038616845260020190915290205460ff16612cf8576000848152602089815260408083206001600160a01b038616808552600282018452828520805460ff1916600190811790915588865260038301855292852080546001600160a01b031916909117905592879052908a9052908101805490910190555b600084815260208990526040902060010154871415612d1e576001945050505050612a44565b505050509392505050565b3b151590565b600054610100900460ff1680612d485750612d48612a96565b80612d56575060005460ff16155b612d915760405162461bcd60e51b815260040180806020018281038252602e815260200180612f89602e913960400191505060405180910390fd5b600054610100900460ff16158015612b44576000805460ff1961ff0019909116610100171660011790558015610d69576000805461ff001916905550565b600054610100900460ff1680612de85750612de8612a96565b80612df6575060005460ff16155b612e315760405162461bcd60e51b815260040180806020018281038252602e815260200180612f89602e913960400191505060405180910390fd5b600054610100900460ff16158015612e5c576000805460ff1961ff0019909116610100171660011790555b6000612e666126d8565b603380546001600160a01b0319166001600160a01b038316908117909155604051919250906000907f8be0079c531659141344cd1fd0a4f28419497f9722a3daafe3b4186f6b6457e0908290a3508015610d69576000805461ff00191690555056fe4d5346756e20636865636b5369676e6572206661696c6564202d2030206e6f7420616c6c6f7765644f776e61626c653a206e6577206f776e657220697320746865207a65726f2061646472657373646572702c20746861742067616d657320616c7265616479206265656e2072656769737465726564737472696e67206d757374206265206265747765656e203120616e6420333220636861726163746572736d73672073656e646572206973206e6f74206120646576000000000000000000496e697469616c697a61626c653a20636f6e747261637420697320616c726561647920696e697469616c697a6564737472696e672063616e6e6f7420636f6e7461696e20636f6e736563757469766520737061636573737472696e672063616e6e6f74207374617274206f7220656e64207769746820737061636573696c6c7920706c617965722c20746861742067616d6520646f65736e277420657869737420796574737472696e6720636f6e7461696e7320696e76616c696420636861726163746572736865792074686572652062756464792c20796f7520646f6e74206576656e206861766520616e206163636f756e74756d6d2e2e2e2e2e2020796f75206861766520746f2070617920746865206e616d6520666565a2646970667358221220ada2c6614da5197de371ccc9bd1c08b47d03f4985daaf5f76bb8b3cc22feaa1964736f6c634300060c0033",
  "linkReferences": {},
  "deployedLinkReferences": {}
}