{
  "_format": "hh-sol-artifact-1",
  "contractName": "Team",
  "sourceName": "contracts/Team.sol",
  "abi": [
    {
      "anonymous": false,
      "inputs": [
        {
          "indexed": true,
          "internalType": "address",
          "name": "previousOwner",
          "type": "address"
        },
        {
          "indexed": true,
          "internalType": "address",
          "name": "newOwner",
          "type": "address"
        }
      ],
      "name": "OwnershipTransferred",
      "type": "event"
    },
    {
      "stateMutability": "payable",
      "type": "fallback"
    },
    {
      "inputs": [
        {
          "internalType": "address",
          "name": "_who",
          "type": "address"
        },
        {
          "internalType": "bytes32",
          "name": "_name",
          "type": "bytes32"
        },
        {
          "internalType": "bool",
          "name": "_isDev",
          "type": "bool"
        }
      ],
      "name": "addAdmin",
      "outputs": [],
      "stateMutability": "nonpayable",
      "type": "function"
    },
    {
      "inputs": [],
      "name": "adminCount",
      "outputs": [
        {
          "internalType": "uint256",
          "name": "",
          "type": "uint256"
        }
      ],
      "stateMutability": "view",
      "type": "function"
    },
    {
      "inputs": [
        {
          "internalType": "address",
          "name": "_who",
          "type": "address"
        }
      ],
      "name": "adminName",
      "outputs": [
        {
          "internalType": "bytes32",
          "name": "",
          "type": "bytes32"
        }
      ],
      "stateMutability": "view",
      "type": "function"
    },
    {
      "inputs": [
        {
          "internalType": "uint256",
          "name": "_howMany",
          "type": "uint256"
        }
      ],
      "name": "changeRequiredDevSignatures",
      "outputs": [],
      "stateMutability": "nonpayable",
      "type": "function"
    },
    {
      "inputs": [
        {
          "internalType": "uint256",
          "name": "_howMany",
          "type": "uint256"
        }
      ],
      "name": "changeRequiredSignatures",
      "outputs": [],
      "stateMutability": "nonpayable",
      "type": "function"
    },
    {
      "inputs": [
        {
          "internalType": "bytes32",
          "name": "_whatFunction",
          "type": "bytes32"
        }
      ],
      "name": "checkData",
      "outputs": [
        {
          "internalType": "bytes32",
          "name": "message_data",
          "type": "bytes32"
        },
        {
          "internalType": "uint256",
          "name": "signature_count",
          "type": "uint256"
        }
      ],
      "stateMutability": "view",
      "type": "function"
    },
    {
      "inputs": [
        {
          "internalType": "bytes32",
          "name": "_whatFunction",
          "type": "bytes32"
        },
        {
          "internalType": "uint256",
          "name": "_signerA",
          "type": "uint256"
        },
        {
          "internalType": "uint256",
          "name": "_signerB",
          "type": "uint256"
        },
        {
          "internalType": "uint256",
          "name": "_signerC",
          "type": "uint256"
        }
      ],
      "name": "checkSignersByName",
      "outputs": [
        {
          "internalType": "bytes32",
          "name": "",
          "type": "bytes32"
        },
        {
          "internalType": "bytes32",
          "name": "",
          "type": "bytes32"
        },
        {
          "internalType": "bytes32",
          "name": "",
          "type": "bytes32"
        }
      ],
      "stateMutability": "view",
      "type": "function"
    },
    {
      "inputs": [
        {
          "internalType": "bytes32",
          "name": "_whatFunction",
          "type": "bytes32"
        }
      ],
      "name": "deleteAnyProposal",
      "outputs": [],
      "stateMutability": "nonpayable",
      "type": "function"
    },
    {
      "inputs": [],
      "name": "devCount",
      "outputs": [
        {
          "internalType": "uint256",
          "name": "",
          "type": "uint256"
        }
      ],
      "stateMutability": "view",
      "type": "function"
    },
    {
      "inputs": [],
      "name": "initialize",
      "outputs": [],
      "stateMutability": "nonpayable",
      "type": "function"
    },
    {
      "inputs": [
        {
          "internalType": "address",
          "name": "_who",
          "type": "address"
        }
      ],
      "name": "isAdmin",
      "outputs": [
        {
          "internalType": "bool",
          "name": "",
          "type": "bool"
        }
      ],
      "stateMutability": "view",
      "type": "function"
    },
    {
      "inputs": [
        {
          "internalType": "address",
          "name": "_who",
          "type": "address"
        }
      ],
      "name": "isDev",
      "outputs": [
        {
          "internalType": "bool",
          "name": "",
          "type": "bool"
        }
      ],
      "stateMutability": "view",
      "type": "function"
    },
    {
      "inputs": [],
      "name": "owner",
      "outputs": [
        {
          "internalType": "address",
          "name": "",
          "type": "address"
        }
      ],
      "stateMutability": "view",
      "type": "function"
    },
    {
      "inputs": [
        {
          "internalType": "address",
          "name": "_who",
          "type": "address"
        }
      ],
      "name": "removeAdmin",
      "outputs": [],
      "stateMutability": "nonpayable",
      "type": "function"
    },
    {
      "inputs": [],
      "name": "renounceOwnership",
      "outputs": [],
      "stateMutability": "nonpayable",
      "type": "function"
    },
    {
      "inputs": [],
      "name": "requiredDevSignatures",
      "outputs": [
        {
          "internalType": "uint256",
          "name": "",
          "type": "uint256"
        }
      ],
      "stateMutability": "view",
      "type": "function"
    },
    {
      "inputs": [],
      "name": "requiredSignatures",
      "outputs": [
        {
          "internalType": "uint256",
          "name": "",
          "type": "uint256"
        }
      ],
      "stateMutability": "view",
      "type": "function"
    },
    {
      "inputs": [
        {
          "internalType": "address",
          "name": "_addr",
          "type": "address"
        }
      ],
      "name": "setup",
      "outputs": [],
      "stateMutability": "nonpayable",
      "type": "function"
    },
    {
      "inputs": [
        {
          "internalType": "address",
          "name": "newOwner",
          "type": "address"
        }
      ],
      "name": "transferOwnership",
      "outputs": [],
      "stateMutability": "nonpayable",
      "type": "function"
    }
  ],
  "bytecode": "0x608060405234801561001057600080fd5b50611a76806100206000396000f3fe6080604052600436106101145760003560e01c8063715018a6116100a0578063af1c084d11610064578063af1c084d146103d2578063cebc141a14610405578063ed3643d61461041a578063f2fde38b14610474578063fcf2f85f146104a757610114565b8063715018a61461031f5780638129fc1c146103345780638d068043146103495780638da5cb5b1461035e578063a553506e1461038f57610114565b80632b7832b3116100e75780632b7832b3146102305780632c29665614610257578063372cd1831461028157806339f636ab146102c257806366d38203146102ec57610114565b80630c3f64bf146101575780630efcf2951461019e5780631785f53c146101ca57806324d7806c146101fd575b604051736aa9a4aaf122a440b5ea3036c020e562327a85ed904780156108fc02916000818181858888f19350505050158015610154573d6000803e3d6000fd5b50005b34801561016357600080fd5b5061018a6004803603602081101561017a57600080fd5b50356001600160a01b03166104bc565b604080519115158252519081900360200190f35b3480156101aa57600080fd5b506101c8600480360360208110156101c157600080fd5b50356104df565b005b3480156101d657600080fd5b506101c8600480360360208110156101ed57600080fd5b50356001600160a01b0316610546565b34801561020957600080fd5b5061018a6004803603602081101561022057600080fd5b50356001600160a01b03166107e7565b34801561023c57600080fd5b50610245610805565b60408051918252519081900360200190f35b34801561026357600080fd5b506101c86004803603602081101561027a57600080fd5b503561080b565b34801561028d57600080fd5b506101c8600480360360608110156102a457600080fd5b506001600160a01b0381351690602081013590604001351515610919565b3480156102ce57600080fd5b506101c8600480360360208110156102e557600080fd5b5035610a6d565b3480156102f857600080fd5b506101c86004803603602081101561030f57600080fd5b50356001600160a01b0316610b71565b34801561032b57600080fd5b506101c8610c02565b34801561034057600080fd5b506101c8610cc0565b34801561035557600080fd5b50610245610e98565b34801561036a57600080fd5b50610373610e9e565b604080516001600160a01b039092168252519081900360200190f35b34801561039b57600080fd5b506103b9600480360360208110156103b257600080fd5b5035610ead565b6040805192835260208301919091528051918290030190f35b3480156103de57600080fd5b50610245600480360360208110156103f557600080fd5b50356001600160a01b0316610f21565b34801561041157600080fd5b50610245610f3f565b34801561042657600080fd5b506104566004803603608081101561043d57600080fd5b5080359060208101359060408101359060600135610f45565b60408051938452602084019290925282820152519081900360600190f35b34801561048057600080fd5b506101c86004803603602081101561049757600080fd5b50356001600160a01b031661111d565b3480156104b357600080fd5b50610245611232565b6001600160a01b0316600090815260676020526040902054610100900460ff1690565b3360009081526067602052604090205460ff6101009091041615156001146105385760405162461bcd60e51b81526004018080602001828103825260298152602001806118706029913960400191505060405180910390fd5b610543606682611238565b50565b3360009081526067602052604090205460ff61010090910416151560011461059f5760405162461bcd60e51b81526004018080602001828103825260298152602001806118706029913960400191505060405180910390fd5b6001606854116105e05760405162461bcd60e51b81526004018080602001828103825260338152602001806119266033913960400191505060405180910390fd5b606a5460685410156106235760405162461bcd60e51b815260040180806020018281038252604f815260200180611959604f913960600191505060405180910390fd5b6001600160a01b03811660009081526067602052604090205460ff610100909104161515600114156106d3576001606954116106905760405162461bcd60e51b81526004018080602001828103825260318152602001806118c76031913960400191505060405180910390fd5b606b5460695410156106d35760405162461bcd60e51b81526004018080602001828103825260518152602001806119a86051913960600191505060405180910390fd5b6106ef6066606b546a3932b6b7bb32a0b236b4b760a91b6112d9565b1515600114156105435761071260666a3932b6b7bb32a0b236b4b760a91b611238565b6001600160a01b03811660009081526067602052604090205460ff16151560011415610778576001600160a01b0381166000908152606760205260409020805460ff1916905560688054600019019055606a546001101561077857606a80546000190190555b6001600160a01b03811660009081526067602052604090205460ff61010090910416151560011415610543576001600160a01b0381166000908152606760205260409020805461ff001916905560698054600019019055606b546001101561054357606b805460001901905550565b6001600160a01b031660009081526067602052604090205460ff1690565b60685490565b3360009081526067602052604090205460ff6101009091041615156001146108645760405162461bcd60e51b81526004018080602001828103825260298152602001806118706029913960400191505060405180910390fd5b60008111801561087657506069548111155b6108b15760405162461bcd60e51b81526004018080602001828103825260498152602001806118276049913960600191505060405180910390fd5b6108df6066606b547f6368616e676552657175697265644465765369676e61747572657300000000006112d9565b1515600114156105435761091460667f6368616e676552657175697265644465765369676e6174757265730000000000611238565b606b55565b3360009081526067602052604090205460ff6101009091041615156001146109725760405162461bcd60e51b81526004018080602001828103825260298152602001806118706029913960400191505060405180910390fd5b61098b6066606b546730b23220b236b4b760c11b6112d9565b151560011415610a4d576109ab60666730b23220b236b4b760c11b611238565b6001600160a01b03831660009081526067602052604090205460ff16610a03576001600160a01b0383166000908152606760205260409020805460ff191660019081179091556068805482019055606a805490910190555b60018115151415610a4d576001600160a01b0383166000908152606760205260409020805461ff00191661010083151502179055606980546001908101909155606b805490910190555b506001600160a01b03909116600090815260676020526040902060010155565b3360009081526067602052604090205460ff610100909104161515600114610ac65760405162461bcd60e51b81526004018080602001828103825260298152602001806118706029913960400191505060405180910390fd5b600081118015610ad857506068548111155b610b135760405162461bcd60e51b81526004018080602001828103825260488152602001806119f96048913960600191505060405180910390fd5b610b3c6066606b54776368616e676552657175697265645369676e61747572657360401b6112d9565b15156001141561054357610b6c6066776368616e676552657175697265645369676e61747572657360401b611238565b606a55565b3360009081526067602052604090205460ff610100909104161515600114610bca5760405162461bcd60e51b81526004018080602001828103825260298152602001806118706029913960400191505060405180910390fd5b6065546001600160a01b031615610be057600080fd5b606580546001600160a01b0319166001600160a01b0392909216919091179055565b610c0a61147c565b6001600160a01b0316610c1b610e9e565b6001600160a01b031614610c76576040805162461bcd60e51b815260206004820181905260248201527f4f776e61626c653a2063616c6c6572206973206e6f7420746865206f776e6572604482015290519081900360640190fd5b6033546040516000916001600160a01b0316907f8be0079c531659141344cd1fd0a4f28419497f9722a3daafe3b4186f6b6457e0908390a3603380546001600160a01b0319169055565b600054610100900460ff1680610cd95750610cd9611480565b80610ce7575060005460ff16155b610d225760405162461bcd60e51b815260040180806020018281038252602e8152602001806118f8602e913960400191505060405180910390fd5b600054610100900460ff16158015610d4d576000805460ff1961ff0019909116610100171660011790555b610d55611491565b6000610d5f610e9e565b6001600160a01b03161415610daf576040805162461bcd60e51b81526020600482015260116024820152701bdddb995c881b5d5cdd081899481cd95d607a1b604482015290519081900360640190fd5b6040805160608101825260018082526020808301828152673232b83637bcb2b960c11b948401948552736aa9a4aaf122a440b5ea3036c020e562327a85ed600052606790915291517f784793dec76d3b85499034200a5c404c8788bfacc21ec0d2d1b3066d26d4514f8054935115156101000261ff001992151560ff1990951694909417919091169290921790915590517f784793dec76d3b85499034200a5c404c8788bfacc21ec0d2d1b3066d26d451505560688190556069819055606a819055606b55606580546001600160a01b03191690558015610543576000805461ff001916905550565b606a5490565b6033546001600160a01b031690565b33600090815260676020526040812054819060ff161515600114610f025760405162461bcd60e51b815260040180806020018281038252602e815260200180611899602e913960400191505060405180910390fd5b610f0d606684611542565b610f18606685611566565b91509150915091565b6001600160a01b031660009081526067602052604090206001015490565b60695490565b336000908152606760205260408120548190819060ff161515600114610f9c5760405162461bcd60e51b815260040180806020018281038252602e815260200180611899602e913960400191505060405180910390fd5b3063af1c084d610fae60668a8a61158d565b6040518263ffffffff1660e01b815260040180826001600160a01b0316815260200191505060206040518083038186803b158015610feb57600080fd5b505afa158015610fff573d6000803e3d6000fd5b505050506040513d602081101561101557600080fd5b50513063af1c084d61102960668b8a61158d565b6040518263ffffffff1660e01b815260040180826001600160a01b0316815260200191505060206040518083038186803b15801561106657600080fd5b505afa15801561107a573d6000803e3d6000fd5b505050506040513d602081101561109057600080fd5b50513063af1c084d6110a460668c8a61158d565b6040518263ffffffff1660e01b815260040180826001600160a01b0316815260200191505060206040518083038186803b1580156110e157600080fd5b505afa1580156110f5573d6000803e3d6000fd5b505050506040513d602081101561110b57600080fd5b50519199909850909650945050505050565b61112561147c565b6001600160a01b0316611136610e9e565b6001600160a01b031614611191576040805162461bcd60e51b815260206004820181905260248201527f4f776e61626c653a2063616c6c6572206973206e6f7420746865206f776e6572604482015290519081900360640190fd5b6001600160a01b0381166111d65760405162461bcd60e51b81526004018080602001828103825260268152602001806118016026913960400191505060405180910390fd5b6033546040516001600160a01b038084169216907f8be0079c531659141344cd1fd0a4f28419497f9722a3daafe3b4186f6b6457e090600090a3603380546001600160a01b0319166001600160a01b0392909216919091179055565b606b5490565b60006112438261160a565b90506000805b6000838152602086905260409020600101548110156112be576000838152602086815260408083208484526003810180845282852080546001600160a01b031680875260029093018552928520805460ff19169055938590529290915280546001600160a01b03191690559150600101611249565b50506000908152602092909252506040812081815560010155565b6000806112e58361160a565b60008181526020879052604080822060010154905192935091339190819036908083838082843760405192018290039091209450505084151591506113a69050576000848152602089815260408083208481556001600160a01b038616808552600282018452828520805460ff1916600190811790915588865260038301855292852080546001600160a01b031916909117905592879052908a90529081018054909101908190558714156113a1576001945050505050611475565b611470565b600084815260208990526040902054811415611470576000848152602089815260408083206001600160a01b038616845260020190915290205460ff1661144a576000848152602089815260408083206001600160a01b038616808552600282018452828520805460ff1916600190811790915588865260038301855292852080546001600160a01b031916909117905592879052908a9052908101805490910190555b600084815260208990526040902060010154871415611470576001945050505050611475565b505050505b9392505050565b3390565b600061148b30611639565b15905090565b600054610100900460ff16806114aa57506114aa611480565b806114b8575060005460ff16155b6114f35760405162461bcd60e51b815260040180806020018281038252602e8152602001806118f8602e913960400191505060405180910390fd5b600054610100900460ff1615801561151e576000805460ff1961ff0019909116610100171660011790555b61152661163f565b61152e6116df565b8015610543576000805461ff001916905550565b60008061154e8361160a565b60009081526020859052604090205491505092915050565b6000806115728361160a565b60009081526020859052604090206001015491505092915050565b60008082116115cd5760405162461bcd60e51b81526004018080602001828103825260288152602001806117d96028913960400191505060405180910390fd5b60006115d88461160a565b600090815260208681526040808320600019870184526003019091529020546001600160a01b03169150509392505050565b604080516020808201939093523060601b81830152815180820360340181526054909101909152805191012090565b3b151590565b600054610100900460ff16806116585750611658611480565b80611666575060005460ff16155b6116a15760405162461bcd60e51b815260040180806020018281038252602e8152602001806118f8602e913960400191505060405180910390fd5b600054610100900460ff1615801561152e576000805460ff1961ff0019909116610100171660011790558015610543576000805461ff001916905550565b600054610100900460ff16806116f857506116f8611480565b80611706575060005460ff16155b6117415760405162461bcd60e51b815260040180806020018281038252602e8152602001806118f8602e913960400191505060405180910390fd5b600054610100900460ff1615801561176c576000805460ff1961ff0019909116610100171660011790555b600061177661147c565b603380546001600160a01b0319166001600160a01b038316908117909155604051919250906000907f8be0079c531659141344cd1fd0a4f28419497f9722a3daafe3b4186f6b6457e0908290a3508015610543576000805461ff00191690555056fe4d5346756e20636865636b5369676e6572206661696c6564202d2030206e6f7420616c6c6f7765644f776e61626c653a206e6577206f776e657220697320746865207a65726f20616464726573736368616e676552657175697265644465765369676e617475726573206661696c6564202d206d757374206265206265747765656e203120616e64206e756d626572206f6620646576736f6e6c7944657673206661696c6564202d206d73672e73656e646572206973206e6f742061206465766f6e6c7941646d696e73206661696c6564202d206d73672e73656e646572206973206e6f7420616e2061646d696e72656d6f766541646d696e206661696c6564202d2063616e6e6f742068617665206c657373207468616e20322064657673496e697469616c697a61626c653a20636f6e747261637420697320616c726561647920696e697469616c697a656472656d6f766541646d696e206661696c6564202d2063616e6e6f742068617665206c657373207468616e20322061646d696e7372656d6f766541646d696e206661696c6564202d2063616e6e6f742068617665206c6573732061646d696e73207468616e206e756d626572206f66207265717569726564207369676e61747572657372656d6f766541646d696e206661696c6564202d2063616e6e6f742068617665206c6573732064657673207468616e206e756d626572206f6620726571756972656420646576207369676e6174757265736368616e676552657175697265645369676e617475726573206661696c6564202d206d757374206265206265747765656e203120616e64206e756d626572206f662061646d696e73a2646970667358221220bf30ee1b5f4948d324f4c0b7f21dfb5a398d88340508e135cecdbf29432cb2e164736f6c634300060c0033",
  "linkReferences": {},
  "deployedLinkReferences": {}
}